{
  "contractName": "basic_Crowdfund",
  "abi": [
    {
      "inputs": [
        {
          "internalType": "uint256",
          "name": "minimum",
          "type": "uint256"
        }
      ],
      "payable": false,
      "stateMutability": "nonpayable",
      "type": "constructor"
    },
    {
      "constant": true,
      "inputs": [
        {
          "internalType": "uint256",
          "name": "",
          "type": "uint256"
        }
      ],
      "name": "Approvers",
      "outputs": [
        {
          "internalType": "address",
          "name": "",
          "type": "address"
        }
      ],
      "payable": false,
      "stateMutability": "view",
      "type": "function"
    },
    {
      "constant": true,
      "inputs": [],
      "name": "Creator",
      "outputs": [
        {
          "internalType": "address",
          "name": "",
          "type": "address"
        }
      ],
      "payable": false,
      "stateMutability": "view",
      "type": "function"
    },
    {
      "constant": true,
      "inputs": [],
      "name": "Requirement",
      "outputs": [
        {
          "internalType": "uint256",
          "name": "",
          "type": "uint256"
        }
      ],
      "payable": false,
      "stateMutability": "view",
      "type": "function"
    },
    {
      "constant": true,
      "inputs": [],
      "name": "minimumContribution",
      "outputs": [
        {
          "internalType": "uint256",
          "name": "",
          "type": "uint256"
        }
      ],
      "payable": false,
      "stateMutability": "view",
      "type": "function"
    },
    {
      "constant": false,
      "inputs": [
        {
          "internalType": "uint256",
          "name": "contribution",
          "type": "uint256"
        }
      ],
      "name": "contribute",
      "outputs": [],
      "payable": false,
      "stateMutability": "nonpayable",
      "type": "function"
    }
  ],
  "bytecode": "0x6080604052600060035534801561001557600080fd5b5060405161033f38038061033f8339818101604052602081101561003857600080fd5b8101908080519060200190929190505050336000806101000a81548173ffffffffffffffffffffffffffffffffffffffff021916908373ffffffffffffffffffffffffffffffffffffffff160217905550806002819055505061029f806100a06000396000f3fe608060405234801561001057600080fd5b50600436106100575760003560e01c806318bee97e1461005c57806366e10366146100a6578063937e09b1146100c4578063c1cbbca7146100e2578063d414c8d514610110575b600080fd5b61006461017e565b604051808273ffffffffffffffffffffffffffffffffffffffff1673ffffffffffffffffffffffffffffffffffffffff16815260200191505060405180910390f35b6100ae6101a3565b6040518082815260200191505060405180910390f35b6100cc6101a9565b6040518082815260200191505060405180910390f35b61010e600480360360208110156100f857600080fd5b81019080803590602001909291905050506101af565b005b61013c6004803603602081101561012657600080fd5b810190808035906020019092919050505061022e565b604051808273ffffffffffffffffffffffffffffffffffffffff1673ffffffffffffffffffffffffffffffffffffffff16815260200191505060405180910390f35b6000809054906101000a900473ffffffffffffffffffffffffffffffffffffffff1681565b60035481565b60025481565b60025481116101bd57600080fd5b600160038190555060013390806001815401808255809150509060018203906000526020600020016000909192909190916101000a81548173ffffffffffffffffffffffffffffffffffffffff021916908373ffffffffffffffffffffffffffffffffffffffff1602179055505050565b6001818154811061023b57fe5b906000526020600020016000915054906101000a900473ffffffffffffffffffffffffffffffffffffffff168156fea265627a7a72315820524605607b82b8bf08813f3b8ddf59d9596a1fa69df864927f3e61aa3521812364736f6c63430005100032",
  "source": "pragma solidity ^0.5.1;\r\n\r\n\r\ncontract basic_Crowdfund {\r\n \r\naddress public Creator ;  // The address of the creator of the smart contract\r\naddress[] public Approvers; // Approvers are the addresses of the backers and has voting powers\r\nuint   public minimumContribution; // minimumContribution needed to become an approver\r\nuint public Requirement = 0; // test variable\r\n\r\n\r\n// below function is a constructor where the contract is initialised \r\n\r\nconstructor (uint minimum) public {\r\n    \r\n          Creator = msg.sender;\r\n          minimumContribution = minimum;\r\n          \r\n}\r\n\r\n\r\n// below is the minimum contribute required to participate as a donor \r\n\r\n\r\nfunction contribute (uint contribution) public {\r\n    \r\n    require  (contribution > minimumContribution);\r\n   Requirement = 1; //Simulation not actual money\r\n   Approvers.push(msg.sender);\r\n    \r\n}\r\n\r\n\r\n\r\n\r\n\r\n\r\n}",
  "sourcePath": "C:/Programming/Blockchain Programs/My-Bootstrap_Project/contracts/Crowdfund.sol",
  "compiler": {
    "name": "solc",
    "version": "0.5.16+commit.9c3226ce.Emscripten.clang"
  },
  "schemaVersion": "3.3.1",
  "updatedAt": "2021-05-28T13:14:15.180Z",
  "devdoc": {
    "methods": {}
  },
  "userdoc": {
    "methods": {}
  }
}