{
  "contractName": "basic_Crowdfund",
  "abi": [
    {
      "constant": true,
      "inputs": [],
      "name": "Creator",
      "outputs": [
        {
          "name": "",
          "type": "address"
        }
      ],
      "payable": false,
      "stateMutability": "view",
      "type": "function"
    },
    {
      "constant": true,
      "inputs": [],
      "name": "Requirement",
      "outputs": [
        {
          "name": "",
          "type": "uint256"
        }
      ],
      "payable": false,
      "stateMutability": "view",
      "type": "function"
    },
    {
      "constant": true,
      "inputs": [],
      "name": "minimumContribution",
      "outputs": [
        {
          "name": "",
          "type": "uint256"
        }
      ],
      "payable": false,
      "stateMutability": "view",
      "type": "function"
    },
    {
      "constant": true,
      "inputs": [
        {
          "name": "",
          "type": "uint256"
        }
      ],
      "name": "Approvers",
      "outputs": [
        {
          "name": "",
          "type": "address"
        }
      ],
      "payable": false,
      "stateMutability": "view",
      "type": "function"
    },
    {
      "inputs": [
        {
          "name": "minimum",
          "type": "uint256"
        }
      ],
      "payable": false,
      "stateMutability": "nonpayable",
      "type": "constructor"
    },
    {
      "constant": false,
      "inputs": [
        {
          "name": "contribution",
          "type": "uint256"
        }
      ],
      "name": "contribute",
      "outputs": [],
      "payable": false,
      "stateMutability": "nonpayable",
      "type": "function"
    }
  ],
  "bytecode": "0x6080604052600060035534801561001557600080fd5b506040516020806103888339810180604052602081101561003557600080fd5b8101908080519060200190929190505050336000806101000a81548173ffffffffffffffffffffffffffffffffffffffff021916908373ffffffffffffffffffffffffffffffffffffffff16021790555080600281905550506102eb8061009d6000396000f3fe608060405260043610610067576000357c01000000000000000000000000000000000000000000000000000000009004806318bee97e1461006c57806366e10366146100c3578063937e09b1146100ee578063c1cbbca714610119578063d414c8d514610154575b600080fd5b34801561007857600080fd5b506100816101cf565b604051808273ffffffffffffffffffffffffffffffffffffffff1673ffffffffffffffffffffffffffffffffffffffff16815260200191505060405180910390f35b3480156100cf57600080fd5b506100d86101f4565b6040518082815260200191505060405180910390f35b3480156100fa57600080fd5b506101036101fa565b6040518082815260200191505060405180910390f35b34801561012557600080fd5b506101526004803603602081101561013c57600080fd5b8101908080359060200190929190505050610200565b005b34801561016057600080fd5b5061018d6004803603602081101561017757600080fd5b8101908080359060200190929190505050610281565b604051808273ffffffffffffffffffffffffffffffffffffffff1673ffffffffffffffffffffffffffffffffffffffff16815260200191505060405180910390f35b6000809054906101000a900473ffffffffffffffffffffffffffffffffffffffff1681565b60035481565b60025481565b6002548111151561021057600080fd5b600160038190555060013390806001815401808255809150509060018203906000526020600020016000909192909190916101000a81548173ffffffffffffffffffffffffffffffffffffffff021916908373ffffffffffffffffffffffffffffffffffffffff1602179055505050565b60018181548110151561029057fe5b906000526020600020016000915054906101000a900473ffffffffffffffffffffffffffffffffffffffff168156fea165627a7a723058203a66015f91f606bfd9d8088c8077c72074d226cbcfddc555934500433954ab800029",
  "source": "\r\n\r\npragma solidity ^0.5.1;\r\n\r\ncontract basic_Crowdfund{\r\n \r\naddress  public Creator ;  // The address of the creator of the smart contract\r\naddress[] public Approvers; // Approvers are the addresses of the backers and has voting powers\r\nuint   public minimumContribution; // minimumContribution needed to become an approver\r\nuint public Requirement = 0; // test variable\r\n\r\n\r\n// below function is a constructor where the contract is initialised \r\n\r\nconstructor (uint minimum) public {\r\n    \r\n          Creator = msg.sender;\r\n          minimumContribution = minimum;\r\n          \r\n}\r\n\r\n\r\n// below is the minimum contribute required to participate as a donor \r\n\r\n\r\nfunction contribute (uint contribution) public {\r\n    \r\n    require  (contribution > minimumContribution);\r\n   Requirement = 1; //Simulation not actual money\r\n   Approvers.push(msg.sender);\r\n    \r\n}\r\n\r\n\r\n\r\n\r\n\r\n\r\n\r\n\r\n\r\n}",
  "sourcePath": "C:/Programming/Blockchain Programs/My-Bootstrap_Project/contracts/Crowdfund.sol",
  "compiler": {
    "name": "solc",
    "version": "0.5.1+commit.c8a2cb62.Emscripten.clang"
  },
  "schemaVersion": "3.3.1",
  "updatedAt": "2021-06-12T07:45:30.447Z",
  "networkType": "ethereum",
  "devdoc": {
    "methods": {}
  },
  "userdoc": {
    "methods": {}
  }
}