{
  "contractName": "Project_List",
  "abi": [
    {
      "constant": true,
      "inputs": [
        {
          "name": "",
          "type": "uint256"
        }
      ],
      "name": "projects",
      "outputs": [
        {
          "name": "",
          "type": "address"
        }
      ],
      "payable": false,
      "stateMutability": "view",
      "type": "function"
    },
    {
      "constant": true,
      "inputs": [],
      "name": "DeployedProject",
      "outputs": [
        {
          "name": "",
          "type": "address"
        }
      ],
      "payable": false,
      "stateMutability": "view",
      "type": "function"
    },
    {
      "constant": true,
      "inputs": [],
      "name": "numOfProjects",
      "outputs": [
        {
          "name": "",
          "type": "uint256"
        }
      ],
      "payable": false,
      "stateMutability": "view",
      "type": "function"
    },
    {
      "inputs": [],
      "payable": false,
      "stateMutability": "nonpayable",
      "type": "constructor"
    },
    {
      "payable": false,
      "stateMutability": "nonpayable",
      "type": "fallback"
    },
    {
      "anonymous": false,
      "inputs": [
        {
          "indexed": false,
          "name": "id",
          "type": "uint256"
        },
        {
          "indexed": false,
          "name": "title",
          "type": "string"
        },
        {
          "indexed": false,
          "name": "addr",
          "type": "address"
        },
        {
          "indexed": false,
          "name": "creator",
          "type": "address"
        }
      ],
      "name": "LogProjectCreated",
      "type": "event"
    },
    {
      "anonymous": false,
      "inputs": [
        {
          "indexed": false,
          "name": "projectAddress",
          "type": "address"
        },
        {
          "indexed": false,
          "name": "contributor",
          "type": "address"
        },
        {
          "indexed": false,
          "name": "amount",
          "type": "uint256"
        }
      ],
      "name": "LogContributionSent",
      "type": "event"
    },
    {
      "anonymous": false,
      "inputs": [
        {
          "indexed": false,
          "name": "message",
          "type": "string"
        }
      ],
      "name": "LogFailure",
      "type": "event"
    },
    {
      "constant": false,
      "inputs": [
        {
          "name": "_fundingGoal",
          "type": "uint256"
        },
        {
          "name": "_deadline",
          "type": "uint256"
        },
        {
          "name": "_title",
          "type": "string"
        }
      ],
      "name": "createProject",
      "outputs": [
        {
          "name": "projectAddress",
          "type": "address"
        }
      ],
      "payable": true,
      "stateMutability": "payable",
      "type": "function"
    },
    {
      "constant": false,
      "inputs": [
        {
          "name": "ProjIndex",
          "type": "uint256"
        }
      ],
      "name": "GetProject",
      "outputs": [
        {
          "name": "",
          "type": "string"
        },
        {
          "name": "",
          "type": "uint256"
        },
        {
          "name": "",
          "type": "uint256"
        },
        {
          "name": "",
          "type": "address"
        },
        {
          "name": "",
          "type": "uint256"
        },
        {
          "name": "",
          "type": "uint256"
        },
        {
          "name": "",
          "type": "uint256"
        },
        {
          "name": "",
          "type": "address"
        }
      ],
      "payable": false,
      "stateMutability": "nonpayable",
      "type": "function"
    },
    {
      "constant": false,
      "inputs": [
        {
          "name": "_projectAddress",
          "type": "address"
        }
      ],
      "name": "contribute",
      "outputs": [
        {
          "name": "successful",
          "type": "bool"
        }
      ],
      "payable": true,
      "stateMutability": "payable",
      "type": "function"
    },
    {
      "constant": false,
      "inputs": [],
      "name": "kill",
      "outputs": [],
      "payable": false,
      "stateMutability": "nonpayable",
      "type": "function"
    }
  ],
  "bytecode": "0x6080604052336000806101000a81548173ffffffffffffffffffffffffffffffffffffffff021916908373ffffffffffffffffffffffffffffffffffffffff16021790555060146003556101ea60045534801561005b57600080fd5b50336000806101000a81548173ffffffffffffffffffffffffffffffffffffffff021916908373ffffffffffffffffffffffffffffffffffffffff16021790555060006001819055506128a9806100b36000396000f3fe60806040526004361062000085576000357c010000000000000000000000000000000000000000000000000000000090048063107046bd146200009857806320f7a50514620001175780632fc5fcf5146200022c57806341c0e1b5146200028657806373e888fd14620002a057806383d3cfd314620002ff578063fde849de146200032d575b3480156200009257600080fd5b50600080fd5b348015620000a557600080fd5b50620000d560048036036020811015620000be57600080fd5b810190808035906020019092919050505062000471565b604051808273ffffffffffffffffffffffffffffffffffffffff1673ffffffffffffffffffffffffffffffffffffffff16815260200191505060405180910390f35b620001ea600480360360608110156200012f57600080fd5b810190808035906020019092919080359060200190929190803590602001906401000000008111156200016157600080fd5b8201836020820111156200017457600080fd5b803590602001918460018302840111640100000000831117156200019757600080fd5b91908080601f016020809104026020016040519081016040528093929190818152602001838380828437600081840152601f19601f820116905080830192505050505050509192919290505050620004a4565b604051808273ffffffffffffffffffffffffffffffffffffffff1673ffffffffffffffffffffffffffffffffffffffff16815260200191505060405180910390f35b3480156200023957600080fd5b5062000244620009d9565b604051808273ffffffffffffffffffffffffffffffffffffffff1673ffffffffffffffffffffffffffffffffffffffff16815260200191505060405180910390f35b3480156200029357600080fd5b506200029e620009ff565b005b620002e560048036036020811015620002b857600080fd5b81019080803573ffffffffffffffffffffffffffffffffffffffff16906020019092919050505062000a95565b604051808215151515815260200191505060405180910390f35b3480156200030c57600080fd5b506200031762000ec4565b6040518082815260200191505060405180910390f35b3480156200033a57600080fd5b506200036a600480360360208110156200035357600080fd5b810190808035906020019092919050505062000eca565b60405180806020018981526020018881526020018773ffffffffffffffffffffffffffffffffffffffff1673ffffffffffffffffffffffffffffffffffffffff1681526020018681526020018581526020018481526020018373ffffffffffffffffffffffffffffffffffffffff1673ffffffffffffffffffffffffffffffffffffffff16815260200182810382528a818151815260200191508051906020019080838360005b838110156200042e57808201518184015260208101905062000411565b50505050905090810190601f1680156200045c5780820380516001836020036101000a031916815260200191505b50995050505050505050505060405180910390f35b60056020528060005260406000206000915054906101000a900473ffffffffffffffffffffffffffffffffffffffff1681565b6000808411151562000543577fa2db52a45d71264723caeac03c235d51bb30cff5e1ac71c97a5842ec94fbb6af60405180806020018281038252602b8152602001807f50726f6a6563742066756e64696e6720676f616c206d7573742062652067726581526020017f61746572207468616e203000000000000000000000000000000000000000000081525060400191505060405180910390a1600080fd5b8243101515620005e0577fa2db52a45d71264723caeac03c235d51bb30cff5e1ac71c97a5842ec94fbb6af6040518080602001828103825260378152602001807f50726f6a65637420646561646c696e65206d757374206265206772656174657281526020017f207468616e207468652063757272656e7420626c6f636b00000000000000000081525060400191505060405180910390a1600080fd5b600033858585620005f062001075565b808573ffffffffffffffffffffffffffffffffffffffff1673ffffffffffffffffffffffffffffffffffffffff16815260200184815260200183815260200180602001828103825283818151815260200191508051906020019080838360005b838110156200066d57808201518184015260208101905062000650565b50505050905090810190601f1680156200069b5780820380516001836020036101000a031916815260200191505b5095505050505050604051809103906000f080158015620006c0573d6000803e3d6000fd5b50905080600260006101000a81548173ffffffffffffffffffffffffffffffffffffffff021916908373ffffffffffffffffffffffffffffffffffffffff1602179055508060056000600154815260200190815260200160002060006101000a81548173ffffffffffffffffffffffffffffffffffffffff021916908373ffffffffffffffffffffffffffffffffffffffff1602179055506001600081548092919060010191905055507fba62717de6e28c9ba72e0123d5205f96439a8d3299c4740990788bba49faf37f60015484833360405180858152602001806020018473ffffffffffffffffffffffffffffffffffffffff1673ffffffffffffffffffffffffffffffffffffffff1681526020018373ffffffffffffffffffffffffffffffffffffffff1673ffffffffffffffffffffffffffffffffffffffff168152602001828103825285818151815260200191508051906020019080838360005b838110156200083d57808201518184015260208101905062000820565b50505050905090810190601f1680156200086b5780820380516001836020036101000a031916815260200191505b509550505050505060405180910390a160008190508073ffffffffffffffffffffffffffffffffffffffff16636e57b7006040518163ffffffff167c0100000000000000000000000000000000000000000000000000000000028152600401600060405180830381600087803b158015620008e557600080fd5b505af1158015620008fa573d6000803e3d6000fd5b505050506040513d6000823e3d601f19601f820116820180604052506101008110156200092657600080fd5b8101908080516401000000008111156200093f57600080fd5b828101905060208101848111156200095657600080fd5b81518560018202830111640100000000821117156200097457600080fd5b505092919060200180519060200190929190805190602001909291908051906020019092919080519060200190929190805190602001909291908051906020019092919080519060200190929190505050505050505050505081925050509392505050565b600260009054906101000a900473ffffffffffffffffffffffffffffffffffffffff1681565b3373ffffffffffffffffffffffffffffffffffffffff166000809054906101000a900473ffffffffffffffffffffffffffffffffffffffff1673ffffffffffffffffffffffffffffffffffffffff1614151562000a5b57600080fd5b6000809054906101000a900473ffffffffffffffffffffffffffffffffffffffff1673ffffffffffffffffffffffffffffffffffffffff16ff5b6000803411151562000b34577fa2db52a45d71264723caeac03c235d51bb30cff5e1ac71c97a5842ec94fbb6af6040518080602001828103825260288152602001807f436f6e747269627574696f6e73206d757374206265206772656174657220746881526020017f616e20302077656900000000000000000000000000000000000000000000000081525060400191505060405180910390a1600080fd5b6000829050600073ffffffffffffffffffffffffffffffffffffffff168173ffffffffffffffffffffffffffffffffffffffff1663f9b8057f6040518163ffffffff167c010000000000000000000000000000000000000000000000000000000002815260040160206040518083038186803b15801562000bb457600080fd5b505afa15801562000bc9573d6000803e3d6000fd5b505050506040513d602081101562000be057600080fd5b810190808051906020019092919050505073ffffffffffffffffffffffffffffffffffffffff16141562000ca1577fa2db52a45d71264723caeac03c235d51bb30cff5e1ac71c97a5842ec94fbb6af6040518080602001828103825260258152602001807f50726f6a65637420636f6e7472616374206e6f7420666f756e6420617420616481526020017f647265737300000000000000000000000000000000000000000000000000000081525060400191505060405180910390a1600080fd5b8073ffffffffffffffffffffffffffffffffffffffff16632302440834336040518363ffffffff167c0100000000000000000000000000000000000000000000000000000000028152600401808273ffffffffffffffffffffffffffffffffffffffff1673ffffffffffffffffffffffffffffffffffffffff1681526020019150506020604051808303818588803b15801562000d3d57600080fd5b505af115801562000d52573d6000803e3d6000fd5b50505050506040513d602081101562000d6a57600080fd5b81019080805190602001909291905050501562000e2b577f39f7b6bb5cccf15345de2c840895996ec35ca04ec42a98491662b55aa34421b4833334604051808473ffffffffffffffffffffffffffffffffffffffff1673ffffffffffffffffffffffffffffffffffffffff1681526020018373ffffffffffffffffffffffffffffffffffffffff1673ffffffffffffffffffffffffffffffffffffffff168152602001828152602001935050505060405180910390a1600191505062000ebf565b7fa2db52a45d71264723caeac03c235d51bb30cff5e1ac71c97a5842ec94fbb6af6040518080602001828103825260268152602001807f436f6e747269627574696f6e20646964206e6f742073656e642073756363657381526020017f7366756c6c79000000000000000000000000000000000000000000000000000081525060400191505060405180910390a160009150505b919050565b60015481565b60606000806000806000806000806000600560008c815260200190815260200160002060009054906101000a900473ffffffffffffffffffffffffffffffffffffffff1690508091508173ffffffffffffffffffffffffffffffffffffffff16636e57b7006040518163ffffffff167c0100000000000000000000000000000000000000000000000000000000028152600401600060405180830381600087803b15801562000f7857600080fd5b505af115801562000f8d573d6000803e3d6000fd5b505050506040513d6000823e3d601f19601f8201168201806040525061010081101562000fb957600080fd5b81019080805164010000000081111562000fd257600080fd5b8281019050602081018481111562000fe957600080fd5b81518560018202830111640100000000821117156200100757600080fd5b505092919060200180519060200190929190805190602001909291908051906020019092919080519060200190929190805190602001909291908051906020019092919080519060200190929190505050995099509950995099509950995099505050919395975091939597565b6040516117f780620010878339019056fe60806040523480156200001157600080fd5b50604051620017f7380380620017f7833981018060405260808110156200003757600080fd5b8101908080519060200190929190805190602001909291908051906020019092919080516401000000008111156200006e57600080fd5b828101905060208101848111156200008557600080fd5b8151856001820283011164010000000082111715620000a357600080fd5b505092919050505060008311151562000149577fa2db52a45d71264723caeac03c235d51bb30cff5e1ac71c97a5842ec94fbb6af60405180806020018281038252602b8152602001807f50726f6a6563742066756e64696e6720676f616c206d7573742062652067726581526020017f61746572207468616e203000000000000000000000000000000000000000000081525060400191505060405180910390a1600080fd5b8143101515620001e6577fa2db52a45d71264723caeac03c235d51bb30cff5e1ac71c97a5842ec94fbb6af6040518080602001828103825260378152602001807f50726f6a65637420646561646c696e65206d757374206265206772656174657281526020017f207468616e207468652063757272656e7420626c6f636b00000000000000000081525060400191505060405180910390a1600080fd5b336000806101000a81548173ffffffffffffffffffffffffffffffffffffffff021916908373ffffffffffffffffffffffffffffffffffffffff1602179055506080604051908101604052808573ffffffffffffffffffffffffffffffffffffffff16815260200184815260200183815260200182815250600660008201518160000160006101000a81548173ffffffffffffffffffffffffffffffffffffffff021916908373ffffffffffffffffffffffffffffffffffffffff16021790555060208201518160010155604082015181600201556060820151816003019080519060200190620002d9929190620002ff565b5090505060006003819055506000600481905550600060058190555050505050620003ae565b828054600181600116156101000203166002900490600052602060002090601f016020900481019282601f106200034257805160ff191683800117855562000373565b8280016001018555821562000373579182015b828111156200037257825182559160200191906001019062000355565b5b50905062000382919062000386565b5090565b620003ab91905b80821115620003a75760008160009055506001016200038d565b5090565b90565b61143980620003be6000396000f3fe6080604052600436106100b4576000357c0100000000000000000000000000000000000000000000000000000000900480631cee0700146100b95780631f6d49421461013b57806323024408146101a057806338658175146101fc578063590e1ae31461022757806363bd1d4a146102495780636e57b7001461026b5780637569b3d714610384578063cef42254146103af578063f9b8057f14610431578063fcd802b114610488578063fe47a8a714610559575b600080fd5b3480156100c557600080fd5b506100f2600480360360208110156100dc57600080fd5b8101908080359060200190929190505050610584565b604051808381526020018273ffffffffffffffffffffffffffffffffffffffff1673ffffffffffffffffffffffffffffffffffffffff1681526020019250505060405180910390f35b34801561014757600080fd5b5061018a6004803603602081101561015e57600080fd5b81019080803573ffffffffffffffffffffffffffffffffffffffff1690602001909291905050506105c8565b6040518082815260200191505060405180910390f35b6101e2600480360360208110156101b657600080fd5b81019080803573ffffffffffffffffffffffffffffffffffffffff1690602001909291905050506105e0565b604051808215151515815260200191505060405180910390f35b34801561020857600080fd5b50610211610d26565b6040518082815260200191505060405180910390f35b61022f610d2c565b604051808215151515815260200191505060405180910390f35b610251611092565b604051808215151515815260200191505060405180910390f35b34801561027757600080fd5b50610280611130565b60405180806020018981526020018881526020018773ffffffffffffffffffffffffffffffffffffffff1673ffffffffffffffffffffffffffffffffffffffff1681526020018681526020018581526020018481526020018373ffffffffffffffffffffffffffffffffffffffff1673ffffffffffffffffffffffffffffffffffffffff16815260200182810382528a818151815260200191508051906020019080838360005b83811015610342578082015181840152602081019050610327565b50505050905090810190601f16801561036f5780820380516001836020036101000a031916815260200191505b50995050505050505050505060405180910390f35b34801561039057600080fd5b50610399611237565b6040518082815260200191505060405180910390f35b3480156103bb57600080fd5b506103e8600480360360208110156103d257600080fd5b810190808035906020019092919050505061123d565b604051808381526020018273ffffffffffffffffffffffffffffffffffffffff1673ffffffffffffffffffffffffffffffffffffffff1681526020019250505060405180910390f35b34801561043d57600080fd5b506104466112dc565b604051808273ffffffffffffffffffffffffffffffffffffffff1673ffffffffffffffffffffffffffffffffffffffff16815260200191505060405180910390f35b34801561049457600080fd5b5061049d611301565b604051808573ffffffffffffffffffffffffffffffffffffffff1673ffffffffffffffffffffffffffffffffffffffff16815260200184815260200183815260200180602001828103825283818151815260200191508051906020019080838360005b8381101561051b578082015181840152602081019050610500565b50505050905090810190601f1680156105485780820380516001836020036101000a031916815260200191505b509550505050505060405180910390f35b34801561056557600080fd5b5061056e6113d7565b6040518082815260200191505060405180910390f35b60026020528060005260406000206000915090508060000154908060010160009054906101000a900473ffffffffffffffffffffffffffffffffffffffff16905082565b60016020528060005260406000206000915090505481565b6000803411151561067e577fa2db52a45d71264723caeac03c235d51bb30cff5e1ac71c97a5842ec94fbb6af6040518080602001828103825260308152602001807f46756e64696e6720636f6e747269627574696f6e73206d75737420626520677281526020017f6561746572207468616e2030207765690000000000000000000000000000000081525060400191505060405180910390a1600080fd5b6000809054906101000a900473ffffffffffffffffffffffffffffffffffffffff1673ffffffffffffffffffffffffffffffffffffffff163373ffffffffffffffffffffffffffffffffffffffff1614151561078d577fa2db52a45d71264723caeac03c235d51bb30cff5e1ac71c97a5842ec94fbb6af6040518080602001828103825260428152602001807f46756e64696e6720636f6e747269627574696f6e732063616e206f6e6c79206281526020017f65206d616465207468726f7567682046756e64696e6748756220636f6e74726181526020017f637400000000000000000000000000000000000000000000000000000000000081525060600191505060405180910390a1600080fd5b6006600201544311156108e8577f06a029cfeb9ba6076c9c728f3ac5eb2de5535c866f145b0679a2f5fb2afcae6130600354600454604051808473ffffffffffffffffffffffffffffffffffffffff1673ffffffffffffffffffffffffffffffffffffffff168152602001838152602001828152602001935050505060405180910390a18173ffffffffffffffffffffffffffffffffffffffff166108fc349081150290604051600060405180830381858888f1935050505015156108df577fa2db52a45d71264723caeac03c235d51bb30cff5e1ac71c97a5842ec94fbb6af60405180806020018281038252603b8152602001807f50726f6a65637420646561646c696e6520686173207061737365642c2070726f81526020017f626c656d2072657475726e696e6720636f6e747269627574696f6e000000000081525060400191505060405180910390a1600080fd5b60009050610d21565b600660020154600354101515610a4f577ff2f86ff1ec83177c1a8bfc8a746ed87b25fb731cd937a710b77139e477d2ab4230600354600454604051808473ffffffffffffffffffffffffffffffffffffffff1673ffffffffffffffffffffffffffffffffffffffff168152602001838152602001828152602001935050505060405180910390a18173ffffffffffffffffffffffffffffffffffffffff166108fc349081150290604051600060405180830381858888f193505050501515610a3d577fa2db52a45d71264723caeac03c235d51bb30cff5e1ac71c97a5842ec94fbb6af60405180806020018281038252603b8152602001807f50726f6a65637420646561646c696e6520686173207061737365642c2070726f81526020017f626c656d2072657475726e696e6720636f6e747269627574696f6e000000000081525060400191505060405180910390a1600080fd5b610a45611092565b5060009050610d21565b6000600160008473ffffffffffffffffffffffffffffffffffffffff1673ffffffffffffffffffffffffffffffffffffffff168152602001908152602001600020549050610a9b6113dd565b600260006004548152602001908152602001600020604080519081016040529081600082015481526020016001820160009054906101000a900473ffffffffffffffffffffffffffffffffffffffff1673ffffffffffffffffffffffffffffffffffffffff1673ffffffffffffffffffffffffffffffffffffffff1681525050905083816020019073ffffffffffffffffffffffffffffffffffffffff16908173ffffffffffffffffffffffffffffffffffffffff16815250503481600001818152505034600160008673ffffffffffffffffffffffffffffffffffffffff1673ffffffffffffffffffffffffffffffffffffffff16815260200190815260200160002060008282540192505081905550346003600082825401925050819055506004600081548092919060010191905055506000821415610bea576005600081548092919060010191905055505b7f1613ab8aabab6179e17fac6982185658b18ef4166931650cf8a2d5ed1a987aeb308534604051808473ffffffffffffffffffffffffffffffffffffffff1673ffffffffffffffffffffffffffffffffffffffff1681526020018373ffffffffffffffffffffffffffffffffffffffff1673ffffffffffffffffffffffffffffffffffffffff168152602001828152602001935050505060405180910390a1600660020154600354101515610d1a577ff2f86ff1ec83177c1a8bfc8a746ed87b25fb731cd937a710b77139e477d2ab4230600354600454604051808473ffffffffffffffffffffffffffffffffffffffff1673ffffffffffffffffffffffffffffffffffffffff168152602001838152602001828152602001935050505060405180910390a1610d18611092565b505b6001925050505b919050565b60045481565b6000600660020154431015610dce577fa2db52a45d71264723caeac03c235d51bb30cff5e1ac71c97a5842ec94fbb6af6040518080602001828103825260338152602001807f526566756e64206973206f6e6c7920706f737369626c652069662070726f6a6581526020017f6374206973207061737420646561646c696e650000000000000000000000000081525060400191505060405180910390a1600080fd5b600660020154600354101515610e71577fa2db52a45d71264723caeac03c235d51bb30cff5e1ac71c97a5842ec94fbb6af60405180806020018281038252602e8152602001807f526566756e64206973206e6f7420706f737369626c652069662070726f6a656381526020017f7420686173206d657420676f616c00000000000000000000000000000000000081525060400191505060405180910390a1600080fd5b6000600160003373ffffffffffffffffffffffffffffffffffffffff1673ffffffffffffffffffffffffffffffffffffffff1681526020019081526020016000205490506000600160003373ffffffffffffffffffffffffffffffffffffffff1673ffffffffffffffffffffffffffffffffffffffff168152602001908152602001600020819055503373ffffffffffffffffffffffffffffffffffffffff166108fc829081150290604051600060405180830381858888f1935050505015610fdd577f5912b7ad61865e7a6d5dcaa41e58e9563c7e286fc42999b67e1773e6b76e322d303383604051808473ffffffffffffffffffffffffffffffffffffffff1673ffffffffffffffffffffffffffffffffffffffff1681526020018373ffffffffffffffffffffffffffffffffffffffff1673ffffffffffffffffffffffffffffffffffffffff168152602001828152602001935050505060405180910390a1600191505061108f565b80600160003373ffffffffffffffffffffffffffffffffffffffff1673ffffffffffffffffffffffffffffffffffffffff168152602001908152602001600020819055507fa2db52a45d71264723caeac03c235d51bb30cff5e1ac71c97a5842ec94fbb6af6040518080602001828103825260208152602001807f526566756e6420646964206e6f742073656e64207375636365737366756c6c7981525060200191505060405180910390a160009150505b90565b600060066002015460035410156110a857600080fd5b600060035490506000600381905550600660000160009054906101000a900473ffffffffffffffffffffffffffffffffffffffff1673ffffffffffffffffffffffffffffffffffffffff166108fc829081150290604051600060405180830381858888f193505050501561112057600191505061112d565b8060038190555060009150505b90565b606060008060008060008060006006600301600660020154600660010154600660000160009054906101000a900473ffffffffffffffffffffffffffffffffffffffff1660035460045460055430878054600181600116156101000203166002900480601f0160208091040260200160405190810160405280929190818152602001828054600181600116156101000203166002900480156112135780601f106111e857610100808354040283529160200191611213565b820191906000526020600020905b8154815290600101906020018083116111f657829003601f168201915b50505050509750849450975097509750975097509750975097509091929394959697565b60055481565b6000806112486113dd565b60026000858152602001908152602001600020604080519081016040529081600082015481526020016001820160009054906101000a900473ffffffffffffffffffffffffffffffffffffffff1673ffffffffffffffffffffffffffffffffffffffff1673ffffffffffffffffffffffffffffffffffffffff16815250509050806000015181602001519250925050915091565b6000809054906101000a900473ffffffffffffffffffffffffffffffffffffffff1681565b60068060000160009054906101000a900473ffffffffffffffffffffffffffffffffffffffff1690806001015490806002015490806003018054600181600116156101000203166002900480601f0160208091040260200160405190810160405280929190818152602001828054600181600116156101000203166002900480156113cd5780601f106113a2576101008083540402835291602001916113cd565b820191906000526020600020905b8154815290600101906020018083116113b057829003601f168201915b5050505050905084565b60035481565b604080519081016040528060008152602001600073ffffffffffffffffffffffffffffffffffffffff168152509056fea165627a7a72305820b8ca6ef7c727c4184883311edc1725f6fb4b2538a2ecd8e7f85b30b1fab012330029a165627a7a72305820295010a71f9b12e7cb9b42b1a084c4cde318f55eb1bc8e4dd2711c48441e88d70029",
  "source": "pragma solidity ^0.5.1;\r\nimport \"./2_ProjectPage.sol\";\r\n\r\n\r\ncontract Project_List {\r\n\r\n   address payable owner = msg.sender;\r\n    uint public numOfProjects;\r\n     Project public DeployedProject;\r\n     uint a = 20 ;\r\n     uint b =490;\r\n\r\n    mapping (uint => address) public projects;\r\n\r\n    event LogProjectCreated(uint id, string title, address addr, address creator);\r\n    event LogContributionSent(address projectAddress, address contributor, uint amount);\r\n\r\n    event LogFailure(string message);\r\n\r\n    modifier onlyOwner {\r\n        if (owner != msg.sender) revert();\r\n        _;\r\n    }\r\n    \r\n    constructor () public {\r\n        owner = msg.sender;\r\n        numOfProjects = 0;\r\n    }\r\n\r\n    /**\r\n    * Create a new Project contract\r\n    * [0] -> new Project contract address\r\n    */\r\n    function createProject(uint _fundingGoal, uint _deadline, string memory _title) public payable returns (Project projectAddress) {\r\n\r\n        if (_fundingGoal <= 0) {\r\n           emit LogFailure(\"Project funding goal must be greater than 0\");\r\n            revert();\r\n        }\r\n\r\n        if (block.number >= _deadline) {\r\n          emit  LogFailure(\"Project deadline must be greater than the current block\");\r\n            revert();\r\n        }\r\n\r\n        Project p = new Project( msg.sender,_fundingGoal, _deadline, _title);\r\n        DeployedProject = p;\r\n        projects[numOfProjects] = address(p);\r\n        numOfProjects++;\r\n        emit LogProjectCreated(numOfProjects, _title,address(p), msg.sender);\r\n        \r\n        Project deployedProject = Project(address(p));\r\n       \r\n        deployedProject.getProject();\r\n        return p;\r\n    }\r\n    \r\n    \r\n    /**\r\n    * Allow senders to contribute to a Project by it's address. Calls the fund() function in the Project \r\n    * contract and passes on all value attached to this function call\r\n    * [0] -> contribution was sent \r\n    */\r\n    \r\n/**\r\nfunction contribute(address _projectAddress) public payable returns (bool successful) { \r\n\r\n        // Check amount sent is greater than 0\r\n        if (msg.value <= 0) {\r\n          emit  LogFailure(\"Contributions must be greater than 0 wei\");\r\n            revert();\r\n        }\r\n\r\n        Project deployedProject = Project(_projectAddress);\r\n\r\n        // Check that there is actually a Project contract at that address\r\n        if (deployedProject.fundingHub() == address(0)) {\r\n        emit    LogFailure(\"Project contract not found at address\");\r\n            revert();\r\n        }\r\n\r\n        // Check that fund call was successful\r\n     if (deployedProject.fund.value(msg.value)(msg.sender)) {\r\n         emit  LogContributionSent(_projectAddress, msg.sender, msg.value);\r\n            return true;\r\n    } else {\r\n            LogFailure(\"Contribution did not send successfully\");\r\n            return false;\r\n        }\r\n    } \r\n    \r\n    */\r\n    function GetProject(uint ProjIndex) public  returns (  string memory, uint, uint, address, uint, uint, uint, address  ) {\r\n        Project LocalProjectObj ;\r\n        address TargetedProjAddress;\r\n        TargetedProjAddress = projects[ProjIndex];\r\n        LocalProjectObj = Project(TargetedProjAddress);\r\n        \r\n        return (LocalProjectObj.getProject());\r\n        \r\n       // return (DeployedProject.getProject());\r\n      \r\n    }\r\n    \r\nfunction contribute(address _projectAddress) public payable returns (bool successful) { \r\n\r\n        // Check amount sent is greater than 0\r\n        if (msg.value <= 0) {\r\n           emit LogFailure(\"Contributions must be greater than 0 wei\");\r\n            revert();\r\n        }\r\n\r\n        Project deployedProject = Project(_projectAddress);\r\n\r\n        // Check that there is actually a Project contract at that address\r\n        if (deployedProject.fundingHub() == address(0)) {\r\n          emit   LogFailure(\"Project contract not found at address\");\r\n            revert();\r\n        }\r\n\r\n        // Check that fund call was successful\r\n        if (deployedProject.fund.value(msg.value)(msg.sender)) {\r\n         emit   LogContributionSent(_projectAddress, msg.sender, msg.value);\r\n            return true;\r\n        } else {\r\n         emit   LogFailure(\"Contribution did not send successfully\");\r\n            return false;\r\n        }\r\n    }\r\n    \r\n    \r\n    function kill() public  onlyOwner {\r\n        selfdestruct( owner);\r\n    }\r\n\r\n    /** \r\n    * Don't allow Ether to be sent blindly to this contract\r\n    */\r\n    function() external {\r\n        revert();\r\n    }\r\n}\r\n\r\n\r\n",
  "sourcePath": "C:/Programming/Blockchain Programs/My-Bootstrap_Project/contracts/1_Crowdfund.sol",
  "compiler": {
    "name": "solc",
    "version": "0.5.1+commit.c8a2cb62.Emscripten.clang"
  },
  "schemaVersion": "3.3.1",
  "updatedAt": "2021-06-17T10:40:09.083Z",
  "networkType": "ethereum",
  "devdoc": {
    "methods": {}
  },
  "userdoc": {
    "methods": {
      "GetProject(uint256)": {
        "notice": "function contribute(address _projectAddress) public payable returns (bool successful) { \r // Check amount sent is greater than 0\r if (msg.value <= 0) {\r emit  LogFailure(\"Contributions must be greater than 0 wei\");\r revert();\r }\r Project deployedProject = Project(_projectAddress);\r // Check that there is actually a Project contract at that address\r if (deployedProject.fundingHub() == address(0)) {\r emit    LogFailure(\"Project contract not found at address\");\r revert();\r }\r // Check that fund call was successful\r if (deployedProject.fund.value(msg.value)(msg.sender)) {\r emit  LogContributionSent(_projectAddress, msg.sender, msg.value);\r return true;\r } else {\r LogFailure(\"Contribution did not send successfully\");\r return false;\r }\r } \r"
      },
      "createProject(uint256,uint256,string)": {
        "notice": "Create a new Project contract\r [0] -> new Project contract address\r"
      }
    }
  }
}