{
  "contractName": "Project_List",
  "abi": [
    {
      "constant": true,
      "inputs": [
        {
          "name": "",
          "type": "uint256"
        }
      ],
      "name": "projects",
      "outputs": [
        {
          "name": "",
          "type": "address"
        }
      ],
      "payable": false,
      "stateMutability": "view",
      "type": "function"
    },
    {
      "constant": true,
      "inputs": [],
      "name": "numOfProjects",
      "outputs": [
        {
          "name": "",
          "type": "uint256"
        }
      ],
      "payable": false,
      "stateMutability": "view",
      "type": "function"
    },
    {
      "inputs": [],
      "payable": false,
      "stateMutability": "nonpayable",
      "type": "constructor"
    },
    {
      "payable": false,
      "stateMutability": "nonpayable",
      "type": "fallback"
    },
    {
      "anonymous": false,
      "inputs": [
        {
          "indexed": false,
          "name": "id",
          "type": "uint256"
        },
        {
          "indexed": false,
          "name": "title",
          "type": "bytes32"
        },
        {
          "indexed": false,
          "name": "addr",
          "type": "address"
        },
        {
          "indexed": false,
          "name": "creator",
          "type": "address"
        }
      ],
      "name": "LogProjectCreated",
      "type": "event"
    },
    {
      "anonymous": false,
      "inputs": [
        {
          "indexed": false,
          "name": "projectAddress",
          "type": "address"
        },
        {
          "indexed": false,
          "name": "contributor",
          "type": "address"
        },
        {
          "indexed": false,
          "name": "amount",
          "type": "uint256"
        }
      ],
      "name": "LogContributionSent",
      "type": "event"
    },
    {
      "anonymous": false,
      "inputs": [
        {
          "indexed": false,
          "name": "message",
          "type": "string"
        }
      ],
      "name": "LogFailure",
      "type": "event"
    },
    {
      "constant": false,
      "inputs": [
        {
          "name": "_fundingGoal",
          "type": "uint256"
        },
        {
          "name": "_deadline",
          "type": "uint256"
        },
        {
          "name": "_title",
          "type": "bytes32"
        }
      ],
      "name": "createProject",
      "outputs": [
        {
          "name": "projectAddress",
          "type": "address"
        }
      ],
      "payable": true,
      "stateMutability": "payable",
      "type": "function"
    },
    {
      "constant": false,
      "inputs": [],
      "name": "kill",
      "outputs": [],
      "payable": false,
      "stateMutability": "nonpayable",
      "type": "function"
    }
  ],
  "bytecode": "0x6080604052336000806101000a81548173ffffffffffffffffffffffffffffffffffffffff021916908373ffffffffffffffffffffffffffffffffffffffff16021790555034801561005057600080fd5b50336000806101000a81548173ffffffffffffffffffffffffffffffffffffffff021916908373ffffffffffffffffffffffffffffffffffffffff1602179055506000600181905550610bd2806100a86000396000f3fe60806040526004361061005c576000357c010000000000000000000000000000000000000000000000000000000090048063107046bd1461006e5780633486e26e146100e957806341c0e1b51461016b57806383d3cfd314610182575b34801561006857600080fd5b50600080fd5b34801561007a57600080fd5b506100a76004803603602081101561009157600080fd5b81019080803590602001909291905050506101ad565b604051808273ffffffffffffffffffffffffffffffffffffffff1673ffffffffffffffffffffffffffffffffffffffff16815260200191505060405180910390f35b610129600480360360608110156100ff57600080fd5b810190808035906020019092919080359060200190929190803590602001909291905050506101e0565b604051808273ffffffffffffffffffffffffffffffffffffffff1673ffffffffffffffffffffffffffffffffffffffff16815260200191505060405180910390f35b34801561017757600080fd5b506101806104ac565b005b34801561018e57600080fd5b50610197610541565b6040518082815260200191505060405180910390f35b60026020528060005260406000206000915054906101000a900473ffffffffffffffffffffffffffffffffffffffff1681565b6000808411151561027e577fa2db52a45d71264723caeac03c235d51bb30cff5e1ac71c97a5842ec94fbb6af60405180806020018281038252602b8152602001807f50726f6a6563742066756e64696e6720676f616c206d7573742062652067726581526020017f61746572207468616e203000000000000000000000000000000000000000000081525060400191505060405180910390a1600080fd5b824310151561031a577fa2db52a45d71264723caeac03c235d51bb30cff5e1ac71c97a5842ec94fbb6af6040518080602001828103825260378152602001807f50726f6a65637420646561646c696e65206d757374206265206772656174657281526020017f207468616e207468652063757272656e7420626c6f636b00000000000000000081525060400191505060405180910390a1600080fd5b600033858585610328610547565b808573ffffffffffffffffffffffffffffffffffffffff1673ffffffffffffffffffffffffffffffffffffffff168152602001848152602001838152602001828152602001945050505050604051809103906000f08015801561038f573d6000803e3d6000fd5b5090508060026000600154815260200190815260200160002060006101000a81548173ffffffffffffffffffffffffffffffffffffffff021916908373ffffffffffffffffffffffffffffffffffffffff1602179055507f80fcb060aae34b20dccc9b12f189d900ebfc8a32f5383160cc6f558f543f0e4e600154848333604051808581526020018481526020018373ffffffffffffffffffffffffffffffffffffffff1673ffffffffffffffffffffffffffffffffffffffff1681526020018273ffffffffffffffffffffffffffffffffffffffff1673ffffffffffffffffffffffffffffffffffffffff16815260200194505050505060405180910390a1600160008154809291906001019190505550809150509392505050565b3373ffffffffffffffffffffffffffffffffffffffff166000809054906101000a900473ffffffffffffffffffffffffffffffffffffffff1673ffffffffffffffffffffffffffffffffffffffff1614151561050757600080fd5b6000809054906101000a900473ffffffffffffffffffffffffffffffffffffffff1673ffffffffffffffffffffffffffffffffffffffff16ff5b60015481565b60405161064f806105588339019056fe608060405234801561001057600080fd5b5060405160808061064f8339810180604052608081101561003057600080fd5b81019080805190602001909291908051906020019092919080519060200190929190805190602001909291905050506000831115156100fc577fa2db52a45d71264723caeac03c235d51bb30cff5e1ac71c97a5842ec94fbb6af60405180806020018281038252602b8152602001807f50726f6a6563742066756e64696e6720676f616c206d7573742062652067726581526020017f61746572207468616e203000000000000000000000000000000000000000000081525060400191505060405180910390a1600080fd5b8143101515610198577fa2db52a45d71264723caeac03c235d51bb30cff5e1ac71c97a5842ec94fbb6af6040518080602001828103825260378152602001807f50726f6a65637420646561646c696e65206d757374206265206772656174657281526020017f207468616e207468652063757272656e7420626c6f636b00000000000000000081525060400191505060405180910390a1600080fd5b336000806101000a81548173ffffffffffffffffffffffffffffffffffffffff021916908373ffffffffffffffffffffffffffffffffffffffff1602179055506080604051908101604052808573ffffffffffffffffffffffffffffffffffffffff16815260200184815260200183815260200182815250600660008201518160000160006101000a81548173ffffffffffffffffffffffffffffffffffffffff021916908373ffffffffffffffffffffffffffffffffffffffff160217905550602082015181600101556040820151816002015560608201518160030155905050600060038190555060006004819055506000600581905550505050506103aa806102a56000396000f3fe60806040526004361061007d576000357c0100000000000000000000000000000000000000000000000000000000900480631cee0700146100825780631f6d49421461010457806338658175146101695780637569b3d714610194578063f9b8057f146101bf578063fcd802b114610216578063fe47a8a714610282575b600080fd5b34801561008e57600080fd5b506100bb600480360360208110156100a557600080fd5b81019080803590602001909291905050506102ad565b604051808381526020018273ffffffffffffffffffffffffffffffffffffffff1673ffffffffffffffffffffffffffffffffffffffff1681526020019250505060405180910390f35b34801561011057600080fd5b506101536004803603602081101561012757600080fd5b81019080803573ffffffffffffffffffffffffffffffffffffffff1690602001909291905050506102f1565b6040518082815260200191505060405180910390f35b34801561017557600080fd5b5061017e610309565b6040518082815260200191505060405180910390f35b3480156101a057600080fd5b506101a961030f565b6040518082815260200191505060405180910390f35b3480156101cb57600080fd5b506101d4610315565b604051808273ffffffffffffffffffffffffffffffffffffffff1673ffffffffffffffffffffffffffffffffffffffff16815260200191505060405180910390f35b34801561022257600080fd5b5061022b61033a565b604051808573ffffffffffffffffffffffffffffffffffffffff1673ffffffffffffffffffffffffffffffffffffffff16815260200184815260200183815260200182815260200194505050505060405180910390f35b34801561028e57600080fd5b50610297610378565b6040518082815260200191505060405180910390f35b60026020528060005260406000206000915090508060000154908060010160009054906101000a900473ffffffffffffffffffffffffffffffffffffffff16905082565b60016020528060005260406000206000915090505481565b60045481565b60055481565b6000809054906101000a900473ffffffffffffffffffffffffffffffffffffffff1681565b60068060000160009054906101000a900473ffffffffffffffffffffffffffffffffffffffff16908060010154908060020154908060030154905084565b6003548156fea165627a7a7230582045d42ae561b4a76c465552ef7c5fad455777ce11a828a90781808051d136879b0029a165627a7a723058209edb2a88a9e27ffdefe45d1949478d53b4b12623f7db5dc62400f869493ce9db0029",
  "source": "pragma solidity ^0.5.1;\r\nimport \"./2_ProjectPage.sol\";\r\n\r\n\r\ncontract Project_List {\r\n\r\n   address payable owner = msg.sender;\r\n    uint public numOfProjects;\r\n\r\n    mapping (uint => address) public projects;\r\n\r\n    event LogProjectCreated(uint id, bytes32 title, address addr, address creator);\r\n    event LogContributionSent(address projectAddress, address contributor, uint amount);\r\n\r\n    event LogFailure(string message);\r\n\r\n    modifier onlyOwner {\r\n        if (owner != msg.sender) revert();\r\n        _;\r\n    }\r\n    \r\n    constructor () public {\r\n        owner = msg.sender;\r\n        numOfProjects = 0;\r\n    }\r\n\r\n    /**\r\n    * Create a new Project contract\r\n    * [0] -> new Project contract address\r\n    */\r\n    function createProject(uint _fundingGoal, uint _deadline, bytes32 _title) public payable returns (Project projectAddress) {\r\n\r\n        if (_fundingGoal <= 0) {\r\n           emit LogFailure(\"Project funding goal must be greater than 0\");\r\n            revert();\r\n        }\r\n\r\n        if (block.number >= _deadline) {\r\n          emit  LogFailure(\"Project deadline must be greater than the current block\");\r\n            revert();\r\n        }\r\n\r\n        Project p = new Project( msg.sender,_fundingGoal, _deadline, _title);\r\n        projects[numOfProjects] = address(p);\r\n        emit LogProjectCreated(numOfProjects, _title,address(p), msg.sender);\r\n        numOfProjects++;\r\n        return p;\r\n    }\r\n\r\n    /**\r\n    * Allow senders to contribute to a Project by it's address. Calls the fund() function in the Project \r\n    * contract and passes on all value attached to this function call\r\n    * [0] -> contribution was sent \r\n    */\r\n/**    function contribute(address _projectAddress) public payable returns (bool successful) { \r\n\r\n        // Check amount sent is greater than 0\r\n        if (msg.value <= 0) {\r\n          emit  LogFailure(\"Contributions must be greater than 0 wei\");\r\n            revert();\r\n        }\r\n\r\n        Project deployedProject = Project(_projectAddress);\r\n\r\n        // Check that there is actually a Project contract at that address\r\n        if (deployedProject.fundingHub() == address(0)) {\r\n        emit    LogFailure(\"Project contract not found at address\");\r\n            revert();\r\n        }\r\n\r\n        // Check that fund call was successful\r\n        if (deployedProject.fund.value(msg.value)(msg.sender)) {\r\n          emit  LogContributionSent(_projectAddress, msg.sender, msg.value);\r\n            return true;\r\n        } else {\r\n            LogFailure(\"Contribution did not send successfully\");\r\n            return false;\r\n        }\r\n    }\r\n            */\r\n    function kill() public  onlyOwner {\r\n        selfdestruct( owner);\r\n    }\r\n\r\n    /** \r\n    * Don't allow Ether to be sent blindly to this contract\r\n    */\r\n    function() external {\r\n        revert();\r\n    }\r\n}\r\n\r\n\r\n",
  "sourcePath": "C:/Programming/Blockchain Programs/My-Bootstrap_Project/contracts/1_Crowdfund.sol",
  "compiler": {
    "name": "solc",
    "version": "0.5.1+commit.c8a2cb62.Emscripten.clang"
  },
  "schemaVersion": "3.3.1",
  "updatedAt": "2021-06-07T05:19:02.662Z",
  "devdoc": {
    "methods": {}
  },
  "userdoc": {
    "methods": {
      "createProject(uint256,uint256,bytes32)": {
        "notice": "Create a new Project contract\r [0] -> new Project contract address\r"
      },
      "kill()": {
        "notice": "function contribute(address _projectAddress) public payable returns (bool successful) { \r // Check amount sent is greater than 0\r if (msg.value <= 0) {\r emit  LogFailure(\"Contributions must be greater than 0 wei\");\r revert();\r }\r Project deployedProject = Project(_projectAddress);\r // Check that there is actually a Project contract at that address\r if (deployedProject.fundingHub() == address(0)) {\r emit    LogFailure(\"Project contract not found at address\");\r revert();\r }\r // Check that fund call was successful\r if (deployedProject.fund.value(msg.value)(msg.sender)) {\r emit  LogContributionSent(_projectAddress, msg.sender, msg.value);\r return true;\r } else {\r LogFailure(\"Contribution did not send successfully\");\r return false;\r }\r }\r"
      }
    }
  }
}