{
  "contractName": "Project",
  "abi": [
    {
      "constant": true,
      "inputs": [
        {
          "name": "",
          "type": "uint256"
        }
      ],
      "name": "contributions",
      "outputs": [
        {
          "name": "amount",
          "type": "uint256"
        },
        {
          "name": "contributor",
          "type": "address"
        }
      ],
      "payable": false,
      "stateMutability": "view",
      "type": "function"
    },
    {
      "constant": true,
      "inputs": [
        {
          "name": "",
          "type": "address"
        }
      ],
      "name": "contributors",
      "outputs": [
        {
          "name": "",
          "type": "uint256"
        }
      ],
      "payable": false,
      "stateMutability": "view",
      "type": "function"
    },
    {
      "constant": true,
      "inputs": [],
      "name": "contributionsCount",
      "outputs": [
        {
          "name": "",
          "type": "uint256"
        }
      ],
      "payable": false,
      "stateMutability": "view",
      "type": "function"
    },
    {
      "constant": true,
      "inputs": [],
      "name": "contributorsCount",
      "outputs": [
        {
          "name": "",
          "type": "uint256"
        }
      ],
      "payable": false,
      "stateMutability": "view",
      "type": "function"
    },
    {
      "constant": true,
      "inputs": [],
      "name": "fundingHub",
      "outputs": [
        {
          "name": "",
          "type": "address"
        }
      ],
      "payable": false,
      "stateMutability": "view",
      "type": "function"
    },
    {
      "constant": true,
      "inputs": [],
      "name": "properties",
      "outputs": [
        {
          "name": "creator",
          "type": "address"
        },
        {
          "name": "budget",
          "type": "uint256"
        },
        {
          "name": "deadline",
          "type": "uint256"
        },
        {
          "name": "title",
          "type": "bytes32"
        }
      ],
      "payable": false,
      "stateMutability": "view",
      "type": "function"
    },
    {
      "constant": true,
      "inputs": [],
      "name": "totalFunding",
      "outputs": [
        {
          "name": "",
          "type": "uint256"
        }
      ],
      "payable": false,
      "stateMutability": "view",
      "type": "function"
    },
    {
      "inputs": [
        {
          "name": "_creator",
          "type": "address"
        },
        {
          "name": "_Budget",
          "type": "uint256"
        },
        {
          "name": "_deadline",
          "type": "uint256"
        },
        {
          "name": "_title",
          "type": "bytes32"
        }
      ],
      "payable": false,
      "stateMutability": "nonpayable",
      "type": "constructor"
    },
    {
      "anonymous": false,
      "inputs": [
        {
          "indexed": false,
          "name": "projectAddress",
          "type": "address"
        },
        {
          "indexed": false,
          "name": "contributor",
          "type": "address"
        },
        {
          "indexed": false,
          "name": "amount",
          "type": "uint256"
        }
      ],
      "name": "LogContributionReceived",
      "type": "event"
    },
    {
      "anonymous": false,
      "inputs": [
        {
          "indexed": false,
          "name": "projectAddress",
          "type": "address"
        },
        {
          "indexed": false,
          "name": "owner",
          "type": "address"
        },
        {
          "indexed": false,
          "name": "totalPayout",
          "type": "uint256"
        }
      ],
      "name": "LogPayoutInitiated",
      "type": "event"
    },
    {
      "anonymous": false,
      "inputs": [
        {
          "indexed": false,
          "name": "projectAddress",
          "type": "address"
        },
        {
          "indexed": false,
          "name": "contributor",
          "type": "address"
        },
        {
          "indexed": false,
          "name": "refundAmount",
          "type": "uint256"
        }
      ],
      "name": "LogRefundIssued",
      "type": "event"
    },
    {
      "anonymous": false,
      "inputs": [
        {
          "indexed": false,
          "name": "projectAddress",
          "type": "address"
        },
        {
          "indexed": false,
          "name": "totalFunding",
          "type": "uint256"
        },
        {
          "indexed": false,
          "name": "totalContributions",
          "type": "uint256"
        }
      ],
      "name": "LogFundingGoalReached",
      "type": "event"
    },
    {
      "anonymous": false,
      "inputs": [
        {
          "indexed": false,
          "name": "projectAddress",
          "type": "address"
        },
        {
          "indexed": false,
          "name": "totalFunding",
          "type": "uint256"
        },
        {
          "indexed": false,
          "name": "totalContributions",
          "type": "uint256"
        }
      ],
      "name": "LogFundingFailed",
      "type": "event"
    },
    {
      "anonymous": false,
      "inputs": [
        {
          "indexed": false,
          "name": "message",
          "type": "string"
        }
      ],
      "name": "LogFailure",
      "type": "event"
    }
  ],
  "bytecode": "0x608060405234801561001057600080fd5b5060405160808061064f8339810180604052608081101561003057600080fd5b81019080805190602001909291908051906020019092919080519060200190929190805190602001909291905050506000831115156100fc577fa2db52a45d71264723caeac03c235d51bb30cff5e1ac71c97a5842ec94fbb6af60405180806020018281038252602b8152602001807f50726f6a6563742066756e64696e6720676f616c206d7573742062652067726581526020017f61746572207468616e203000000000000000000000000000000000000000000081525060400191505060405180910390a1600080fd5b8143101515610198577fa2db52a45d71264723caeac03c235d51bb30cff5e1ac71c97a5842ec94fbb6af6040518080602001828103825260378152602001807f50726f6a65637420646561646c696e65206d757374206265206772656174657281526020017f207468616e207468652063757272656e7420626c6f636b00000000000000000081525060400191505060405180910390a1600080fd5b336000806101000a81548173ffffffffffffffffffffffffffffffffffffffff021916908373ffffffffffffffffffffffffffffffffffffffff1602179055506080604051908101604052808573ffffffffffffffffffffffffffffffffffffffff16815260200184815260200183815260200182815250600660008201518160000160006101000a81548173ffffffffffffffffffffffffffffffffffffffff021916908373ffffffffffffffffffffffffffffffffffffffff160217905550602082015181600101556040820151816002015560608201518160030155905050600060038190555060006004819055506000600581905550505050506103aa806102a56000396000f3fe60806040526004361061007d576000357c0100000000000000000000000000000000000000000000000000000000900480631cee0700146100825780631f6d49421461010457806338658175146101695780637569b3d714610194578063f9b8057f146101bf578063fcd802b114610216578063fe47a8a714610282575b600080fd5b34801561008e57600080fd5b506100bb600480360360208110156100a557600080fd5b81019080803590602001909291905050506102ad565b604051808381526020018273ffffffffffffffffffffffffffffffffffffffff1673ffffffffffffffffffffffffffffffffffffffff1681526020019250505060405180910390f35b34801561011057600080fd5b506101536004803603602081101561012757600080fd5b81019080803573ffffffffffffffffffffffffffffffffffffffff1690602001909291905050506102f1565b6040518082815260200191505060405180910390f35b34801561017557600080fd5b5061017e610309565b6040518082815260200191505060405180910390f35b3480156101a057600080fd5b506101a961030f565b6040518082815260200191505060405180910390f35b3480156101cb57600080fd5b506101d4610315565b604051808273ffffffffffffffffffffffffffffffffffffffff1673ffffffffffffffffffffffffffffffffffffffff16815260200191505060405180910390f35b34801561022257600080fd5b5061022b61033a565b604051808573ffffffffffffffffffffffffffffffffffffffff1673ffffffffffffffffffffffffffffffffffffffff16815260200184815260200183815260200182815260200194505050505060405180910390f35b34801561028e57600080fd5b50610297610378565b6040518082815260200191505060405180910390f35b60026020528060005260406000206000915090508060000154908060010160009054906101000a900473ffffffffffffffffffffffffffffffffffffffff16905082565b60016020528060005260406000206000915090505481565b60045481565b60055481565b6000809054906101000a900473ffffffffffffffffffffffffffffffffffffffff1681565b60068060000160009054906101000a900473ffffffffffffffffffffffffffffffffffffffff16908060010154908060020154908060030154905084565b6003548156fea165627a7a7230582045d42ae561b4a76c465552ef7c5fad455777ce11a828a90781808051d136879b0029",
  "source": "pragma solidity ^0.5.1;\r\n\r\n\r\ncontract Project {\r\n \r\n  // The address of the creator of the smart contract\r\n  \r\n  struct ProjProp {\r\n        address creator;\r\n        uint budget;\r\n        uint deadline;\r\n        bytes32 title;\r\n       \r\n    }\r\n    \r\n  struct Contribution {\r\n      \r\n        uint amount;\r\n        address contributor;\r\n    }\r\n    \r\n address public fundingHub;\r\n\r\n    mapping (address => uint) public contributors;\r\n    mapping (uint => Contribution) public contributions;\r\n\r\n    uint public totalFunding;\r\n    uint public contributionsCount;\r\n    uint public contributorsCount;\r\n\r\n    ProjProp public properties;\r\n\r\n    event LogContributionReceived(address projectAddress, address contributor, uint amount);\r\n    event LogPayoutInitiated(address projectAddress, address owner, uint totalPayout);\r\n    event LogRefundIssued(address projectAddress, address contributor, uint refundAmount);\r\n    event LogFundingGoalReached(address projectAddress, uint totalFunding, uint totalContributions);\r\n    event LogFundingFailed(address projectAddress, uint totalFunding, uint totalContributions);\r\n\r\n    event LogFailure(string message);\r\n    \r\n\r\nconstructor  ( address _creator, uint _Budget , uint _deadline, bytes32 _title ) public {\r\n\r\n        \r\n        if (_Budget <= 0) {\r\n          emit  LogFailure(\"Project funding goal must be greater than 0\");\r\n            revert();\r\n        }\r\n       \r\n        if (block.number >= _deadline) {\r\n          emit LogFailure(\"Project deadline must be greater than the current block\");\r\n            revert();\r\n        }\r\n\r\n       //        if (_creator == 0) {\r\n       //    emit  LogFailure(\"Project must include a valid creator address\");\r\n      //      revert();\r\n      //  }\r\n\r\n        fundingHub = msg.sender;\r\n\r\n        \r\n        properties = ProjProp({\r\n            budget : _Budget,\r\n            deadline: _deadline,\r\n            title: _title,\r\n            creator: _creator\r\n        });\r\n\r\n        totalFunding = 0;\r\n        contributionsCount = 0;\r\n        contributorsCount = 0;\r\n    }\r\n    \r\n\r\n}",
  "sourcePath": "C:\\Programming\\Blockchain Programs\\My-Bootstrap_Project\\contracts\\2_ProjectPage.sol",
  "compiler": {
    "name": "solc",
    "version": "0.5.1+commit.c8a2cb62.Emscripten.clang"
  },
  "schemaVersion": "3.3.1",
  "updatedAt": "2021-06-12T07:45:26.379Z",
  "devdoc": {
    "methods": {}
  },
  "userdoc": {
    "methods": {}
  }
}