{
  "contractName": "Project",
  "abi": [
    {
      "constant": true,
      "inputs": [
        {
          "name": "",
          "type": "uint256"
        }
      ],
      "name": "contributions",
      "outputs": [
        {
          "name": "amount",
          "type": "uint256"
        },
        {
          "name": "contributor",
          "type": "address"
        }
      ],
      "payable": false,
      "stateMutability": "view",
      "type": "function"
    },
    {
      "constant": true,
      "inputs": [
        {
          "name": "",
          "type": "address"
        }
      ],
      "name": "contributors",
      "outputs": [
        {
          "name": "",
          "type": "uint256"
        }
      ],
      "payable": false,
      "stateMutability": "view",
      "type": "function"
    },
    {
      "constant": true,
      "inputs": [],
      "name": "contributionsCount",
      "outputs": [
        {
          "name": "",
          "type": "uint256"
        }
      ],
      "payable": false,
      "stateMutability": "view",
      "type": "function"
    },
    {
      "constant": true,
      "inputs": [],
      "name": "contributorsCount",
      "outputs": [
        {
          "name": "",
          "type": "uint256"
        }
      ],
      "payable": false,
      "stateMutability": "view",
      "type": "function"
    },
    {
      "constant": true,
      "inputs": [],
      "name": "ProjectPercentage",
      "outputs": [
        {
          "name": "",
          "type": "uint256"
        }
      ],
      "payable": false,
      "stateMutability": "view",
      "type": "function"
    },
    {
      "constant": true,
      "inputs": [],
      "name": "fundingHub",
      "outputs": [
        {
          "name": "",
          "type": "address"
        }
      ],
      "payable": false,
      "stateMutability": "view",
      "type": "function"
    },
    {
      "constant": true,
      "inputs": [],
      "name": "properties",
      "outputs": [
        {
          "name": "creator",
          "type": "address"
        },
        {
          "name": "budget",
          "type": "uint256"
        },
        {
          "name": "deadline",
          "type": "uint256"
        },
        {
          "name": "title",
          "type": "string"
        }
      ],
      "payable": false,
      "stateMutability": "view",
      "type": "function"
    },
    {
      "constant": true,
      "inputs": [],
      "name": "totalFunding",
      "outputs": [
        {
          "name": "",
          "type": "uint256"
        }
      ],
      "payable": false,
      "stateMutability": "view",
      "type": "function"
    },
    {
      "inputs": [
        {
          "name": "_creator",
          "type": "address"
        },
        {
          "name": "_Budget",
          "type": "uint256"
        },
        {
          "name": "_deadline",
          "type": "uint256"
        },
        {
          "name": "_title",
          "type": "string"
        }
      ],
      "payable": false,
      "stateMutability": "nonpayable",
      "type": "constructor"
    },
    {
      "anonymous": false,
      "inputs": [
        {
          "indexed": false,
          "name": "projectAddress",
          "type": "address"
        },
        {
          "indexed": false,
          "name": "contributor",
          "type": "address"
        },
        {
          "indexed": false,
          "name": "amount",
          "type": "uint256"
        }
      ],
      "name": "LogContributionReceived",
      "type": "event"
    },
    {
      "anonymous": false,
      "inputs": [
        {
          "indexed": false,
          "name": "projectAddress",
          "type": "address"
        },
        {
          "indexed": false,
          "name": "owner",
          "type": "address"
        },
        {
          "indexed": false,
          "name": "totalPayout",
          "type": "uint256"
        }
      ],
      "name": "LogPayoutInitiated",
      "type": "event"
    },
    {
      "anonymous": false,
      "inputs": [
        {
          "indexed": false,
          "name": "projectAddress",
          "type": "address"
        },
        {
          "indexed": false,
          "name": "contributor",
          "type": "address"
        },
        {
          "indexed": false,
          "name": "refundAmount",
          "type": "uint256"
        }
      ],
      "name": "LogRefundIssued",
      "type": "event"
    },
    {
      "anonymous": false,
      "inputs": [
        {
          "indexed": false,
          "name": "projectAddress",
          "type": "address"
        },
        {
          "indexed": false,
          "name": "totalFunding",
          "type": "uint256"
        },
        {
          "indexed": false,
          "name": "totalContributions",
          "type": "uint256"
        }
      ],
      "name": "LogFundingGoalReached",
      "type": "event"
    },
    {
      "anonymous": false,
      "inputs": [
        {
          "indexed": false,
          "name": "projectAddress",
          "type": "address"
        },
        {
          "indexed": false,
          "name": "totalFunding",
          "type": "uint256"
        },
        {
          "indexed": false,
          "name": "totalContributions",
          "type": "uint256"
        }
      ],
      "name": "LogFundingFailed",
      "type": "event"
    },
    {
      "anonymous": false,
      "inputs": [
        {
          "indexed": false,
          "name": "message",
          "type": "string"
        }
      ],
      "name": "LogFailure",
      "type": "event"
    },
    {
      "constant": false,
      "inputs": [],
      "name": "getProject",
      "outputs": [
        {
          "name": "",
          "type": "string"
        },
        {
          "name": "",
          "type": "uint256"
        },
        {
          "name": "",
          "type": "uint256"
        },
        {
          "name": "",
          "type": "address"
        },
        {
          "name": "",
          "type": "uint256"
        },
        {
          "name": "",
          "type": "uint256"
        },
        {
          "name": "",
          "type": "uint256"
        },
        {
          "name": "",
          "type": "address"
        }
      ],
      "payable": false,
      "stateMutability": "nonpayable",
      "type": "function"
    },
    {
      "constant": false,
      "inputs": [
        {
          "name": "_id",
          "type": "uint256"
        }
      ],
      "name": "getContribution",
      "outputs": [
        {
          "name": "",
          "type": "uint256"
        },
        {
          "name": "",
          "type": "address"
        }
      ],
      "payable": false,
      "stateMutability": "nonpayable",
      "type": "function"
    },
    {
      "constant": false,
      "inputs": [
        {
          "name": "_contributor",
          "type": "address"
        }
      ],
      "name": "fund",
      "outputs": [
        {
          "name": "successful",
          "type": "bool"
        }
      ],
      "payable": true,
      "stateMutability": "payable",
      "type": "function"
    },
    {
      "constant": false,
      "inputs": [],
      "name": "payout",
      "outputs": [
        {
          "name": "successful",
          "type": "bool"
        }
      ],
      "payable": true,
      "stateMutability": "payable",
      "type": "function"
    },
    {
      "constant": false,
      "inputs": [],
      "name": "refund",
      "outputs": [
        {
          "name": "successful",
          "type": "bool"
        }
      ],
      "payable": true,
      "stateMutability": "payable",
      "type": "function"
    }
  ],
  "bytecode": "0x60806040523480156200001157600080fd5b506040516200185f3803806200185f833981018060405260808110156200003757600080fd5b8101908080519060200190929190805190602001909291908051906020019092919080516401000000008111156200006e57600080fd5b828101905060208101848111156200008557600080fd5b8151856001820283011164010000000082111715620000a357600080fd5b505092919050505060008311151562000149577fa2db52a45d71264723caeac03c235d51bb30cff5e1ac71c97a5842ec94fbb6af60405180806020018281038252602b8152602001807f50726f6a6563742066756e64696e6720676f616c206d7573742062652067726581526020017f61746572207468616e203000000000000000000000000000000000000000000081525060400191505060405180910390a1600080fd5b8143101515620001e6577fa2db52a45d71264723caeac03c235d51bb30cff5e1ac71c97a5842ec94fbb6af6040518080602001828103825260378152602001807f50726f6a65637420646561646c696e65206d757374206265206772656174657281526020017f207468616e207468652063757272656e7420626c6f636b00000000000000000081525060400191505060405180910390a1600080fd5b336000806101000a81548173ffffffffffffffffffffffffffffffffffffffff021916908373ffffffffffffffffffffffffffffffffffffffff1602179055506080604051908101604052808573ffffffffffffffffffffffffffffffffffffffff16815260200184815260200183815260200182815250600760008201518160000160006101000a81548173ffffffffffffffffffffffffffffffffffffffff021916908373ffffffffffffffffffffffffffffffffffffffff16021790555060208201518160010155604082015181600201556060820151816003019080519060200190620002d992919062000307565b50905050600060038190555060006004819055506000600581905550600060068190555050505050620003b6565b828054600181600116156101000203166002900490600052602060002090601f016020900481019282601f106200034a57805160ff19168380011785556200037b565b828001600101855582156200037b579182015b828111156200037a5782518255916020019190600101906200035d565b5b5090506200038a91906200038e565b5090565b620003b391905b80821115620003af57600081600090555060010162000395565b5090565b90565b61149980620003c66000396000f3fe6080604052600436106100bf576000357c0100000000000000000000000000000000000000000000000000000000900480631cee0700146100c45780631f6d49421461014657806323024408146101ab5780633865817514610207578063590e1ae31461023257806363bd1d4a146102545780636e57b700146102765780637569b3d71461038f578063cef42254146103ba578063dfaf55961461043c578063f9b8057f14610467578063fcd802b1146104be578063fe47a8a71461058f575b600080fd5b3480156100d057600080fd5b506100fd600480360360208110156100e757600080fd5b81019080803590602001909291905050506105ba565b604051808381526020018273ffffffffffffffffffffffffffffffffffffffff1673ffffffffffffffffffffffffffffffffffffffff1681526020019250505060405180910390f35b34801561015257600080fd5b506101956004803603602081101561016957600080fd5b81019080803573ffffffffffffffffffffffffffffffffffffffff1690602001909291905050506105fe565b6040518082815260200191505060405180910390f35b6101ed600480360360208110156101c157600080fd5b81019080803573ffffffffffffffffffffffffffffffffffffffff169060200190929190505050610616565b604051808215151515815260200191505060405180910390f35b34801561021357600080fd5b5061021c610d78565b6040518082815260200191505060405180910390f35b61023a610d7e565b604051808215151515815260200191505060405180910390f35b61025c6110e4565b604051808215151515815260200191505060405180910390f35b34801561028257600080fd5b5061028b61118a565b60405180806020018981526020018881526020018773ffffffffffffffffffffffffffffffffffffffff1673ffffffffffffffffffffffffffffffffffffffff1681526020018681526020018581526020018481526020018373ffffffffffffffffffffffffffffffffffffffff1673ffffffffffffffffffffffffffffffffffffffff16815260200182810382528a818151815260200191508051906020019080838360005b8381101561034d578082015181840152602081019050610332565b50505050905090810190601f16801561037a5780820380516001836020036101000a031916815260200191505b50995050505050505050505060405180910390f35b34801561039b57600080fd5b506103a4611291565b6040518082815260200191505060405180910390f35b3480156103c657600080fd5b506103f3600480360360208110156103dd57600080fd5b8101908080359060200190929190505050611297565b604051808381526020018273ffffffffffffffffffffffffffffffffffffffff1673ffffffffffffffffffffffffffffffffffffffff1681526020019250505060405180910390f35b34801561044857600080fd5b50610451611336565b6040518082815260200191505060405180910390f35b34801561047357600080fd5b5061047c61133c565b604051808273ffffffffffffffffffffffffffffffffffffffff1673ffffffffffffffffffffffffffffffffffffffff16815260200191505060405180910390f35b3480156104ca57600080fd5b506104d3611361565b604051808573ffffffffffffffffffffffffffffffffffffffff1673ffffffffffffffffffffffffffffffffffffffff16815260200184815260200183815260200180602001828103825283818151815260200191508051906020019080838360005b83811015610551578082015181840152602081019050610536565b50505050905090810190601f16801561057e5780820380516001836020036101000a031916815260200191505b509550505050505060405180910390f35b34801561059b57600080fd5b506105a4611437565b6040518082815260200191505060405180910390f35b60026020528060005260406000206000915090508060000154908060010160009054906101000a900473ffffffffffffffffffffffffffffffffffffffff16905082565b60016020528060005260406000206000915090505481565b600080341115156106b4577fa2db52a45d71264723caeac03c235d51bb30cff5e1ac71c97a5842ec94fbb6af6040518080602001828103825260308152602001807f46756e64696e6720636f6e747269627574696f6e73206d75737420626520677281526020017f6561746572207468616e2030207765690000000000000000000000000000000081525060400191505060405180910390a1600080fd5b6000809054906101000a900473ffffffffffffffffffffffffffffffffffffffff1673ffffffffffffffffffffffffffffffffffffffff163373ffffffffffffffffffffffffffffffffffffffff161415156107c3577fa2db52a45d71264723caeac03c235d51bb30cff5e1ac71c97a5842ec94fbb6af6040518080602001828103825260428152602001807f46756e64696e6720636f6e747269627574696f6e732063616e206f6e6c79206281526020017f65206d616465207468726f7567682046756e64696e6748756220636f6e74726181526020017f637400000000000000000000000000000000000000000000000000000000000081525060600191505060405180910390a1600080fd5b60076002015443111561091e577f06a029cfeb9ba6076c9c728f3ac5eb2de5535c866f145b0679a2f5fb2afcae6130600354600454604051808473ffffffffffffffffffffffffffffffffffffffff1673ffffffffffffffffffffffffffffffffffffffff168152602001838152602001828152602001935050505060405180910390a18173ffffffffffffffffffffffffffffffffffffffff166108fc349081150290604051600060405180830381858888f193505050501515610915577fa2db52a45d71264723caeac03c235d51bb30cff5e1ac71c97a5842ec94fbb6af60405180806020018281038252603b8152602001807f50726f6a65637420646561646c696e6520686173207061737365642c2070726f81526020017f626c656d2072657475726e696e6720636f6e747269627574696f6e000000000081525060400191505060405180910390a1600080fd5b60009050610d73565b600760010154600354101515610a85577ff2f86ff1ec83177c1a8bfc8a746ed87b25fb731cd937a710b77139e477d2ab4230600354600454604051808473ffffffffffffffffffffffffffffffffffffffff1673ffffffffffffffffffffffffffffffffffffffff168152602001838152602001828152602001935050505060405180910390a18173ffffffffffffffffffffffffffffffffffffffff166108fc349081150290604051600060405180830381858888f193505050501515610a73577fa2db52a45d71264723caeac03c235d51bb30cff5e1ac71c97a5842ec94fbb6af60405180806020018281038252603b8152602001807f50726f6a65637420646561646c696e6520686173207061737365642c2070726f81526020017f626c656d2072657475726e696e6720636f6e747269627574696f6e000000000081525060400191505060405180910390a1600080fd5b610a7b6110e4565b5060009050610d73565b6000600160008473ffffffffffffffffffffffffffffffffffffffff1673ffffffffffffffffffffffffffffffffffffffff168152602001908152602001600020549050610ad161143d565b600260006004548152602001908152602001600020604080519081016040529081600082015481526020016001820160009054906101000a900473ffffffffffffffffffffffffffffffffffffffff1673ffffffffffffffffffffffffffffffffffffffff1673ffffffffffffffffffffffffffffffffffffffff1681525050905083816020019073ffffffffffffffffffffffffffffffffffffffff16908173ffffffffffffffffffffffffffffffffffffffff16815250503481600001818152505034600160008673ffffffffffffffffffffffffffffffffffffffff1673ffffffffffffffffffffffffffffffffffffffff16815260200190815260200160002060008282540192505081905550346003600082825401925050819055506004600081548092919060010191905055506064600760010154600354811515610c1857fe5b04026006819055506000821415610c3c576005600081548092919060010191905055505b7f1613ab8aabab6179e17fac6982185658b18ef4166931650cf8a2d5ed1a987aeb308534604051808473ffffffffffffffffffffffffffffffffffffffff1673ffffffffffffffffffffffffffffffffffffffff1681526020018373ffffffffffffffffffffffffffffffffffffffff1673ffffffffffffffffffffffffffffffffffffffff168152602001828152602001935050505060405180910390a1600760010154600354101515610d6c577ff2f86ff1ec83177c1a8bfc8a746ed87b25fb731cd937a710b77139e477d2ab4230600354600454604051808473ffffffffffffffffffffffffffffffffffffffff1673ffffffffffffffffffffffffffffffffffffffff168152602001838152602001828152602001935050505060405180910390a1610d6a6110e4565b505b6001925050505b919050565b60045481565b6000600760020154431015610e20577fa2db52a45d71264723caeac03c235d51bb30cff5e1ac71c97a5842ec94fbb6af6040518080602001828103825260338152602001807f526566756e64206973206f6e6c7920706f737369626c652069662070726f6a6581526020017f6374206973207061737420646561646c696e650000000000000000000000000081525060400191505060405180910390a1600080fd5b600760010154600354101515610ec3577fa2db52a45d71264723caeac03c235d51bb30cff5e1ac71c97a5842ec94fbb6af60405180806020018281038252602e8152602001807f526566756e64206973206e6f7420706f737369626c652069662070726f6a656381526020017f7420686173206d657420676f616c00000000000000000000000000000000000081525060400191505060405180910390a1600080fd5b6000600160003373ffffffffffffffffffffffffffffffffffffffff1673ffffffffffffffffffffffffffffffffffffffff1681526020019081526020016000205490506000600160003373ffffffffffffffffffffffffffffffffffffffff1673ffffffffffffffffffffffffffffffffffffffff168152602001908152602001600020819055503373ffffffffffffffffffffffffffffffffffffffff166108fc829081150290604051600060405180830381858888f193505050501561102f577f5912b7ad61865e7a6d5dcaa41e58e9563c7e286fc42999b67e1773e6b76e322d303383604051808473ffffffffffffffffffffffffffffffffffffffff1673ffffffffffffffffffffffffffffffffffffffff1681526020018373ffffffffffffffffffffffffffffffffffffffff1673ffffffffffffffffffffffffffffffffffffffff168152602001828152602001935050505060405180910390a160019150506110e1565b80600160003373ffffffffffffffffffffffffffffffffffffffff1673ffffffffffffffffffffffffffffffffffffffff168152602001908152602001600020819055507fa2db52a45d71264723caeac03c235d51bb30cff5e1ac71c97a5842ec94fbb6af6040518080602001828103825260208152602001807f526566756e6420646964206e6f742073656e64207375636365737366756c6c7981525060200191505060405180910390a160009150505b90565b600060076002015460035410156110fa57600080fd5b6000600354905060006003819055506000600681905550600760000160009054906101000a900473ffffffffffffffffffffffffffffffffffffffff1673ffffffffffffffffffffffffffffffffffffffff166108fc829081150290604051600060405180830381858888f193505050501561117a576001915050611187565b8060038190555060009150505b90565b606060008060008060008060006007600301600760020154600760010154600760000160009054906101000a900473ffffffffffffffffffffffffffffffffffffffff1660035460045460055430878054600181600116156101000203166002900480601f01602080910402602001604051908101604052809291908181526020018280546001816001161561010002031660029004801561126d5780601f106112425761010080835404028352916020019161126d565b820191906000526020600020905b81548152906001019060200180831161125057829003601f168201915b50505050509750849450975097509750975097509750975097509091929394959697565b60055481565b6000806112a261143d565b60026000858152602001908152602001600020604080519081016040529081600082015481526020016001820160009054906101000a900473ffffffffffffffffffffffffffffffffffffffff1673ffffffffffffffffffffffffffffffffffffffff1673ffffffffffffffffffffffffffffffffffffffff16815250509050806000015181602001519250925050915091565b60065481565b6000809054906101000a900473ffffffffffffffffffffffffffffffffffffffff1681565b60078060000160009054906101000a900473ffffffffffffffffffffffffffffffffffffffff1690806001015490806002015490806003018054600181600116156101000203166002900480601f01602080910402602001604051908101604052809291908181526020018280546001816001161561010002031660029004801561142d5780601f106114025761010080835404028352916020019161142d565b820191906000526020600020905b81548152906001019060200180831161141057829003601f168201915b5050505050905084565b60035481565b604080519081016040528060008152602001600073ffffffffffffffffffffffffffffffffffffffff168152509056fea165627a7a72305820298457fc210d7ee29e468d9ca739b54298ea186d31e725896fdcac4a930f34090029",
  "source": "pragma solidity ^0.5.1;\r\n\r\n\r\ncontract Project {\r\n \r\n  // The address of the creator of the smart contract\r\n \r\n  struct ProjProp \r\n     \r\n     \r\n     {\r\n        address payable creator;\r\n        uint budget;\r\n        uint deadline;\r\n         string  title;\r\n        \r\n       \r\n    }\r\n    \r\n  struct Contribution {\r\n      \r\n        uint amount;\r\n        address contributor;\r\n    }\r\n    \r\n    \r\n address public fundingHub;\r\n\r\n    mapping (address => uint) public contributors;\r\n    mapping (uint => Contribution) public contributions;\r\n\r\n    uint public totalFunding;\r\n    uint public contributionsCount;\r\n    uint public contributorsCount;\r\n    uint public ProjectPercentage;\r\n   \r\n\r\n    ProjProp public properties;\r\n\r\n    event LogContributionReceived(address projectAddress, address contributor, uint amount);\r\n    event LogPayoutInitiated(address projectAddress, address owner, uint totalPayout);\r\n    event LogRefundIssued(address projectAddress, address contributor, uint refundAmount);\r\n    event LogFundingGoalReached(address projectAddress, uint totalFunding, uint totalContributions);\r\n    event LogFundingFailed(address projectAddress, uint totalFunding, uint totalContributions);\r\n\r\n    event LogFailure(string message);\r\n    \r\n\r\nconstructor  ( address payable _creator, uint _Budget , uint _deadline, string memory _title ) public {\r\n\r\n        \r\n        if (_Budget <= 0) {\r\n          emit  LogFailure(\"Project funding goal must be greater than 0\");\r\n            revert();\r\n        }\r\n       \r\n        if (block.number >= _deadline) {\r\n          emit LogFailure(\"Project deadline must be greater than the current block\");\r\n            revert();\r\n        }\r\n\r\n//               if (int(_creator) >= 0) {\r\n//           emit  LogFailure(\"Project must include a valid creator address\");\r\n//           revert();\r\n //      }\r\n\r\n        fundingHub = msg.sender;\r\n        \r\n     \r\n\r\n\r\n        \r\n        properties = ProjProp({\r\n            budget : _Budget,\r\n            deadline: _deadline,\r\n            title: _title,\r\n            creator : _creator\r\n        });\r\n\r\n        totalFunding = 0;\r\n        contributionsCount = 0;\r\n        contributorsCount = 0;\r\n        ProjectPercentage = 0;\r\n    }\r\n    \r\n    modifier onlyFundingHub {\r\n        if (fundingHub != msg.sender) revert();\r\n        _;\r\n    }\r\n\r\n    modifier onlyFunded {\r\n        if (totalFunding < properties.deadline) {\r\n           revert();\r\n        }\r\n        _;\r\n    }\r\n    \r\n    \r\n    \r\n       function getProject() public returns (string memory, uint, uint, address, uint, uint, uint ,address ) {\r\n        return (properties.title,\r\n                properties.deadline,\r\n                properties.budget,\r\n                properties.creator,\r\n                totalFunding,\r\n                contributionsCount,\r\n                contributorsCount,\r\n                 address(this)\r\n                );\r\n    }\r\n    \r\n    function getContribution(uint _id) public returns (uint, address) {\r\n        Contribution memory c = contributions[_id];\r\n        return (c.amount, c.contributor);\r\n    }\r\n\r\n    \r\n    function fund(address payable _contributor) public payable returns (bool successful) {\r\n\r\n        // Check amount is greater than 0\r\n        if (msg.value <= 0) {\r\n         emit   LogFailure(\"Funding contributions must be greater than 0 wei\");\r\n           revert();\r\n        }\r\n\r\n        // Check funding only comes thru fundingHub\r\n        if (msg.sender != fundingHub) {\r\n         emit   LogFailure(\"Funding contributions can only be made through FundingHub contract\");\r\n          revert();\r\n        }\r\n\r\n        // 1. Check that the project dealine has not passed\r\n        if (block.number > properties.deadline) {\r\n          emit  LogFundingFailed(address(this), totalFunding, contributionsCount);\r\n            if (!_contributor.send(msg.value)) {\r\n              emit  LogFailure(\"Project deadline has passed, problem returning contribution\");\r\n               revert();\r\n            } \r\n            return false;\r\n        }\r\n\r\n        // 2. Check that funding goal has not already been met\r\n        if (totalFunding >= properties.budget) {\r\n           emit LogFundingGoalReached(address(this), totalFunding, contributionsCount);\r\n            if (!_contributor.send(msg.value)) {\r\n              emit  LogFailure(\"Project deadline has passed, problem returning contribution\");\r\n               revert();\r\n            }\r\n            payout();\r\n            return false;\r\n        }\r\n\r\n        // determine if this is a new contributor\r\n        uint prevContributionBalance = contributors[_contributor];\r\n\r\n        // Add contribution to contributions map\r\n        Contribution memory c = contributions[contributionsCount];\r\n        c.contributor = _contributor;\r\n        c.amount = msg.value;\r\n\r\n        // Update contributor's balance\r\n        contributors[_contributor] += msg.value;\r\n\r\n        totalFunding += msg.value;\r\n        contributionsCount++;\r\n        \r\n        //Update ProjectCompletionPercentage\r\n        \r\n        ProjectPercentage = (( totalFunding / properties.budget)*100);\r\n\r\n        // Check if contributor is new and if so increase count\r\n        if (prevContributionBalance == 0) {\r\n            contributorsCount++;\r\n        }\r\n\r\n      emit  LogContributionReceived(address(this), _contributor, msg.value);\r\n\r\n        // Check again to see whether the last contribution met the fundingGoal \r\n        if (totalFunding >= properties.budget) {\r\n          emit  LogFundingGoalReached(address(this), totalFunding, contributionsCount);\r\n            payout();\r\n        }\r\n\r\n        return true;\r\n    }\r\n    \r\n    \r\n     function payout() public payable onlyFunded returns (bool successful) {\r\n        uint amount = totalFunding;\r\n\r\n        // prevent re-entrancy\r\n        totalFunding = 0;\r\n        ProjectPercentage=0;\r\n        \r\n\r\n        if (properties.creator.send(amount)) {\r\n            return true;\r\n        } else {\r\n            totalFunding = amount;\r\n            return false;\r\n        }\r\n\r\n        return true;\r\n    }\r\n    \r\n      function refund() public payable returns (bool successful) {\r\n\r\n        // Check that the project dealine has passed\r\n        if (block.number < properties.deadline) {\r\n          emit  LogFailure(\"Refund is only possible if project is past deadline\");\r\n           revert();\r\n        }\r\n\r\n        // Check that funding goal has not already been met\r\n        if (totalFunding >= properties.budget){\r\n           emit LogFailure(\"Refund is not possible if project has met goal\");\r\n           revert();\r\n        }\r\n\r\n        uint amount = contributors[msg.sender];\r\n        \r\n        //prevent re-entrancy attack\r\n        contributors[msg.sender] = 0;\r\n\r\n        if (msg.sender.send(amount)) {\r\n        emit    LogRefundIssued(address(this), msg.sender, amount);\r\n            return true;\r\n        } else {\r\n            contributors[msg.sender] = amount;\r\n         emit   LogFailure(\"Refund did not send successfully\");\r\n            return false;\r\n        }\r\n        return true;\r\n    }\r\n\r\n\r\n\r\n}",
  "sourcePath": "C:\\Programming\\Blockchain Programs\\My-Bootstrap_Project\\contracts\\2_ProjectPage.sol",
  "compiler": {
    "name": "solc",
    "version": "0.5.1+commit.c8a2cb62.Emscripten.clang"
  },
  "schemaVersion": "3.3.1",
  "updatedAt": "2021-08-30T09:09:15.270Z",
  "devdoc": {
    "methods": {}
  },
  "userdoc": {
    "methods": {}
  }
}