{
  "contractName": "Project_List",
  "abi": [
    {
      "constant": true,
      "inputs": [
        {
          "name": "",
          "type": "uint256"
        }
      ],
      "name": "projects",
      "outputs": [
        {
          "name": "",
          "type": "address"
        }
      ],
      "payable": false,
      "stateMutability": "view",
      "type": "function"
    },
    {
      "constant": true,
      "inputs": [],
      "name": "DeployedProject",
      "outputs": [
        {
          "name": "",
          "type": "address"
        }
      ],
      "payable": false,
      "stateMutability": "view",
      "type": "function"
    },
    {
      "constant": true,
      "inputs": [],
      "name": "numOfProjects",
      "outputs": [
        {
          "name": "",
          "type": "uint256"
        }
      ],
      "payable": false,
      "stateMutability": "view",
      "type": "function"
    },
    {
      "inputs": [],
      "payable": false,
      "stateMutability": "nonpayable",
      "type": "constructor"
    },
    {
      "payable": false,
      "stateMutability": "nonpayable",
      "type": "fallback"
    },
    {
      "anonymous": false,
      "inputs": [
        {
          "indexed": false,
          "name": "id",
          "type": "uint256"
        },
        {
          "indexed": false,
          "name": "title",
          "type": "string"
        },
        {
          "indexed": false,
          "name": "addr",
          "type": "address"
        },
        {
          "indexed": false,
          "name": "creator",
          "type": "address"
        }
      ],
      "name": "LogProjectCreated",
      "type": "event"
    },
    {
      "anonymous": false,
      "inputs": [
        {
          "indexed": false,
          "name": "projectAddress",
          "type": "address"
        },
        {
          "indexed": false,
          "name": "contributor",
          "type": "address"
        },
        {
          "indexed": false,
          "name": "amount",
          "type": "uint256"
        }
      ],
      "name": "LogContributionSent",
      "type": "event"
    },
    {
      "anonymous": false,
      "inputs": [
        {
          "indexed": false,
          "name": "message",
          "type": "string"
        }
      ],
      "name": "LogFailure",
      "type": "event"
    },
    {
      "constant": false,
      "inputs": [
        {
          "name": "_fundingGoal",
          "type": "uint256"
        },
        {
          "name": "_deadline",
          "type": "uint256"
        },
        {
          "name": "_title",
          "type": "string"
        }
      ],
      "name": "createProject",
      "outputs": [
        {
          "name": "projectAddress",
          "type": "address"
        }
      ],
      "payable": true,
      "stateMutability": "payable",
      "type": "function"
    },
    {
      "constant": false,
      "inputs": [
        {
          "name": "ProjIndex",
          "type": "uint256"
        }
      ],
      "name": "GetProject",
      "outputs": [
        {
          "name": "",
          "type": "string"
        },
        {
          "name": "",
          "type": "uint256"
        },
        {
          "name": "",
          "type": "uint256"
        }
      ],
      "payable": false,
      "stateMutability": "nonpayable",
      "type": "function"
    },
    {
      "constant": false,
      "inputs": [],
      "name": "kill",
      "outputs": [],
      "payable": false,
      "stateMutability": "nonpayable",
      "type": "function"
    }
  ],
  "bytecode": "0x6080604052336000806101000a81548173ffffffffffffffffffffffffffffffffffffffff021916908373ffffffffffffffffffffffffffffffffffffffff16021790555060146003556101ea60045534801561005b57600080fd5b50336000806101000a81548173ffffffffffffffffffffffffffffffffffffffff021916908373ffffffffffffffffffffffffffffffffffffffff1602179055506000600181905550611495806100b36000396000f3fe608060405260043610610072576000357c010000000000000000000000000000000000000000000000000000000090048063107046bd1461008457806320f7a505146100ff5780632fc5fcf51461020e57806341c0e1b51461026557806383d3cfd31461027c578063fde849de146102a7575b34801561007e57600080fd5b50600080fd5b34801561009057600080fd5b506100bd600480360360208110156100a757600080fd5b8101908080359060200190929190505050610369565b604051808273ffffffffffffffffffffffffffffffffffffffff1673ffffffffffffffffffffffffffffffffffffffff16815260200191505060405180910390f35b6101cc6004803603606081101561011557600080fd5b8101908080359060200190929190803590602001909291908035906020019064010000000081111561014657600080fd5b82018360208201111561015857600080fd5b8035906020019184600183028401116401000000008311171561017a57600080fd5b91908080601f016020809104026020016040519081016040528093929190818152602001838380828437600081840152601f19601f82011690508083019250505050505050919291929050505061039c565b604051808273ffffffffffffffffffffffffffffffffffffffff1673ffffffffffffffffffffffffffffffffffffffff16815260200191505060405180910390f35b34801561021a57600080fd5b50610223610888565b604051808273ffffffffffffffffffffffffffffffffffffffff1673ffffffffffffffffffffffffffffffffffffffff16815260200191505060405180910390f35b34801561027157600080fd5b5061027a6108ae565b005b34801561028857600080fd5b50610291610943565b6040518082815260200191505060405180910390f35b3480156102b357600080fd5b506102e0600480360360208110156102ca57600080fd5b8101908080359060200190929190505050610949565b6040518080602001848152602001838152602001828103825285818151815260200191508051906020019080838360005b8381101561032c578082015181840152602081019050610311565b50505050905090810190601f1680156103595780820380516001836020036101000a031916815260200191505b5094505050505060405180910390f35b60056020528060005260406000206000915054906101000a900473ffffffffffffffffffffffffffffffffffffffff1681565b6000808411151561043a577fa2db52a45d71264723caeac03c235d51bb30cff5e1ac71c97a5842ec94fbb6af60405180806020018281038252602b8152602001807f50726f6a6563742066756e64696e6720676f616c206d7573742062652067726581526020017f61746572207468616e203000000000000000000000000000000000000000000081525060400191505060405180910390a1600080fd5b82431015156104d6577fa2db52a45d71264723caeac03c235d51bb30cff5e1ac71c97a5842ec94fbb6af6040518080602001828103825260378152602001807f50726f6a65637420646561646c696e65206d757374206265206772656174657281526020017f207468616e207468652063757272656e7420626c6f636b00000000000000000081525060400191505060405180910390a1600080fd5b6000338585856104e4610aa5565b808573ffffffffffffffffffffffffffffffffffffffff1673ffffffffffffffffffffffffffffffffffffffff16815260200184815260200183815260200180602001828103825283818151815260200191508051906020019080838360005b8381101561055f578082015181840152602081019050610544565b50505050905090810190601f16801561058c5780820380516001836020036101000a031916815260200191505b5095505050505050604051809103906000f0801580156105b0573d6000803e3d6000fd5b50905080600260006101000a81548173ffffffffffffffffffffffffffffffffffffffff021916908373ffffffffffffffffffffffffffffffffffffffff1602179055508060056000600154815260200190815260200160002060006101000a81548173ffffffffffffffffffffffffffffffffffffffff021916908373ffffffffffffffffffffffffffffffffffffffff1602179055506001600081548092919060010191905055507fba62717de6e28c9ba72e0123d5205f96439a8d3299c4740990788bba49faf37f60015484833360405180858152602001806020018473ffffffffffffffffffffffffffffffffffffffff1673ffffffffffffffffffffffffffffffffffffffff1681526020018373ffffffffffffffffffffffffffffffffffffffff1673ffffffffffffffffffffffffffffffffffffffff168152602001828103825285818151815260200191508051906020019080838360005b8381101561072b578082015181840152602081019050610710565b50505050905090810190601f1680156107585780820380516001836020036101000a031916815260200191505b509550505050505060405180910390a160008190508073ffffffffffffffffffffffffffffffffffffffff16636e57b7006040518163ffffffff167c0100000000000000000000000000000000000000000000000000000000028152600401600060405180830381600087803b1580156107d157600080fd5b505af11580156107e5573d6000803e3d6000fd5b505050506040513d6000823e3d601f19601f82011682018060405250606081101561080f57600080fd5b81019080805164010000000081111561082757600080fd5b8281019050602081018481111561083d57600080fd5b815185600182028301116401000000008211171561085a57600080fd5b5050929190602001805190602001909291908051906020019092919050505050505081925050509392505050565b600260009054906101000a900473ffffffffffffffffffffffffffffffffffffffff1681565b3373ffffffffffffffffffffffffffffffffffffffff166000809054906101000a900473ffffffffffffffffffffffffffffffffffffffff1673ffffffffffffffffffffffffffffffffffffffff1614151561090957600080fd5b6000809054906101000a900473ffffffffffffffffffffffffffffffffffffffff1673ffffffffffffffffffffffffffffffffffffffff16ff5b60015481565b60606000806000806005600087815260200190815260200160002060009054906101000a900473ffffffffffffffffffffffffffffffffffffffff1690508091508173ffffffffffffffffffffffffffffffffffffffff16636e57b7006040518163ffffffff167c0100000000000000000000000000000000000000000000000000000000028152600401600060405180830381600087803b1580156109ee57600080fd5b505af1158015610a02573d6000803e3d6000fd5b505050506040513d6000823e3d601f19601f820116820180604052506060811015610a2c57600080fd5b810190808051640100000000811115610a4457600080fd5b82810190506020810184811115610a5a57600080fd5b8151856001820283011164010000000082111715610a7757600080fd5b5050929190602001805190602001909291908051906020019092919050505094509450945050509193909250565b6040516109b480610ab68339019056fe608060405234801561001057600080fd5b506040516109b43803806109b48339810180604052608081101561003357600080fd5b81019080805190602001909291908051906020019092919080519060200190929190805164010000000081111561006957600080fd5b8281019050602081018481111561007f57600080fd5b815185600182028301116401000000008211171561009c57600080fd5b5050929190505050600083111515610141577fa2db52a45d71264723caeac03c235d51bb30cff5e1ac71c97a5842ec94fbb6af60405180806020018281038252602b8152602001807f50726f6a6563742066756e64696e6720676f616c206d7573742062652067726581526020017f61746572207468616e203000000000000000000000000000000000000000000081525060400191505060405180910390a1600080fd5b81431015156101dd577fa2db52a45d71264723caeac03c235d51bb30cff5e1ac71c97a5842ec94fbb6af6040518080602001828103825260378152602001807f50726f6a65637420646561646c696e65206d757374206265206772656174657281526020017f207468616e207468652063757272656e7420626c6f636b00000000000000000081525060400191505060405180910390a1600080fd5b336000806101000a81548173ffffffffffffffffffffffffffffffffffffffff021916908373ffffffffffffffffffffffffffffffffffffffff1602179055506080604051908101604052808573ffffffffffffffffffffffffffffffffffffffff16815260200184815260200183815260200182815250600660008201518160000160006101000a81548173ffffffffffffffffffffffffffffffffffffffff021916908373ffffffffffffffffffffffffffffffffffffffff160217905550602082015181600101556040820151816002015560608201518160030190805190602001906102ce9291906102f3565b5090505060006003819055506000600481905550600060058190555050505050610398565b828054600181600116156101000203166002900490600052602060002090601f016020900481019282601f1061033457805160ff1916838001178555610362565b82800160010185558215610362579182015b82811115610361578251825591602001919060010190610346565b5b50905061036f9190610373565b5090565b61039591905b80821115610391576000816000905550600101610379565b5090565b90565b61060d806103a76000396000f3fe608060405260043610610088576000357c0100000000000000000000000000000000000000000000000000000000900480631cee07001461008d5780631f6d49421461010f57806338658175146101745780636e57b7001461019f5780637569b3d71461023d578063f9b8057f14610268578063fcd802b1146102bf578063fe47a8a714610390575b600080fd5b34801561009957600080fd5b506100c6600480360360208110156100b057600080fd5b81019080803590602001909291905050506103bb565b604051808381526020018273ffffffffffffffffffffffffffffffffffffffff1673ffffffffffffffffffffffffffffffffffffffff1681526020019250505060405180910390f35b34801561011b57600080fd5b5061015e6004803603602081101561013257600080fd5b81019080803573ffffffffffffffffffffffffffffffffffffffff1690602001909291905050506103ff565b6040518082815260200191505060405180910390f35b34801561018057600080fd5b50610189610417565b6040518082815260200191505060405180910390f35b3480156101ab57600080fd5b506101b461041d565b6040518080602001848152602001838152602001828103825285818151815260200191508051906020019080838360005b838110156102005780820151818401526020810190506101e5565b50505050905090810190601f16801561022d5780820380516001836020036101000a031916815260200191505b5094505050505060405180910390f35b34801561024957600080fd5b506102526104da565b6040518082815260200191505060405180910390f35b34801561027457600080fd5b5061027d6104e0565b604051808273ffffffffffffffffffffffffffffffffffffffff1673ffffffffffffffffffffffffffffffffffffffff16815260200191505060405180910390f35b3480156102cb57600080fd5b506102d4610505565b604051808573ffffffffffffffffffffffffffffffffffffffff1673ffffffffffffffffffffffffffffffffffffffff16815260200184815260200183815260200180602001828103825283818151815260200191508051906020019080838360005b83811015610352578082015181840152602081019050610337565b50505050905090810190601f16801561037f5780820380516001836020036101000a031916815260200191505b509550505050505060405180910390f35b34801561039c57600080fd5b506103a56105db565b6040518082815260200191505060405180910390f35b60026020528060005260406000206000915090508060000154908060010160009054906101000a900473ffffffffffffffffffffffffffffffffffffffff16905082565b60016020528060005260406000206000915090505481565b60045481565b60606000806006600301600660020154600660010154828054600181600116156101000203166002900480601f0160208091040260200160405190810160405280929190818152602001828054600181600116156101000203166002900480156104c85780601f1061049d576101008083540402835291602001916104c8565b820191906000526020600020905b8154815290600101906020018083116104ab57829003601f168201915b50505050509250925092509250909192565b60055481565b6000809054906101000a900473ffffffffffffffffffffffffffffffffffffffff1681565b60068060000160009054906101000a900473ffffffffffffffffffffffffffffffffffffffff1690806001015490806002015490806003018054600181600116156101000203166002900480601f0160208091040260200160405190810160405280929190818152602001828054600181600116156101000203166002900480156105d15780601f106105a6576101008083540402835291602001916105d1565b820191906000526020600020905b8154815290600101906020018083116105b457829003601f168201915b5050505050905084565b6003548156fea165627a7a723058203eb135935ea58f9c66950e9b8c3c764b5d6a2574e2701b0caa5bebb7503524dc0029a165627a7a72305820b7e9557b30b1898a690089525b305316fa0b23cd8f1957be7768f23e543dcc6d0029",
  "source": "pragma solidity ^0.5.1;\r\nimport \"./2_ProjectPage.sol\";\r\n\r\n\r\ncontract Project_List {\r\n\r\n   address payable owner = msg.sender;\r\n    uint public numOfProjects;\r\n     Project public DeployedProject;\r\n     uint a = 20 ;\r\n     uint b =490;\r\n\r\n    mapping (uint => address) public projects;\r\n\r\n    event LogProjectCreated(uint id, string title, address addr, address creator);\r\n    event LogContributionSent(address projectAddress, address contributor, uint amount);\r\n\r\n    event LogFailure(string message);\r\n\r\n    modifier onlyOwner {\r\n        if (owner != msg.sender) revert();\r\n        _;\r\n    }\r\n    \r\n    constructor () public {\r\n        owner = msg.sender;\r\n        numOfProjects = 0;\r\n    }\r\n\r\n    /**\r\n    * Create a new Project contract\r\n    * [0] -> new Project contract address\r\n    */\r\n    function createProject(uint _fundingGoal, uint _deadline, string memory _title) public payable returns (Project projectAddress) {\r\n\r\n        if (_fundingGoal <= 0) {\r\n           emit LogFailure(\"Project funding goal must be greater than 0\");\r\n            revert();\r\n        }\r\n\r\n        if (block.number >= _deadline) {\r\n          emit  LogFailure(\"Project deadline must be greater than the current block\");\r\n            revert();\r\n        }\r\n\r\n        Project p = new Project( msg.sender,_fundingGoal, _deadline, _title);\r\n        DeployedProject = p;\r\n        projects[numOfProjects] = address(p);\r\n        numOfProjects++;\r\n        emit LogProjectCreated(numOfProjects, _title,address(p), msg.sender);\r\n        \r\n        Project deployedProject = Project(address(p));\r\n       \r\n        deployedProject.getProject();\r\n        return p;\r\n    }\r\n    \r\n    \r\n    /**\r\n    * Allow senders to contribute to a Project by it's address. Calls the fund() function in the Project \r\n    * contract and passes on all value attached to this function call\r\n    * [0] -> contribution was sent \r\n    */\r\n    \r\n/**\r\nfunction contribute(address _projectAddress) public payable returns (bool successful) { \r\n\r\n        // Check amount sent is greater than 0\r\n        if (msg.value <= 0) {\r\n          emit  LogFailure(\"Contributions must be greater than 0 wei\");\r\n            revert();\r\n        }\r\n\r\n        Project deployedProject = Project(_projectAddress);\r\n\r\n        // Check that there is actually a Project contract at that address\r\n        if (deployedProject.fundingHub() == address(0)) {\r\n        emit    LogFailure(\"Project contract not found at address\");\r\n            revert();\r\n        }\r\n\r\n        // Check that fund call was successful\r\n     if (deployedProject.fund.value(msg.value)(msg.sender)) {\r\n         emit  LogContributionSent(_projectAddress, msg.sender, msg.value);\r\n            return true;\r\n    } else {\r\n            LogFailure(\"Contribution did not send successfully\");\r\n            return false;\r\n        }\r\n    } \r\n    \r\n    */\r\n    function GetProject(uint ProjIndex) public  returns (  string memory, uint,  uint  ) {\r\n        Project LocalProjectObj ;\r\n        address TargetedProjAddress;\r\n        TargetedProjAddress = projects[ProjIndex];\r\n        LocalProjectObj = Project(TargetedProjAddress);\r\n        \r\n        return (LocalProjectObj.getProject());\r\n        \r\n       // return (DeployedProject.getProject());\r\n      \r\n    }\r\n    \r\n    \r\n    function kill() public  onlyOwner {\r\n        selfdestruct( owner);\r\n    }\r\n\r\n    /** \r\n    * Don't allow Ether to be sent blindly to this contract\r\n    */\r\n    function() external {\r\n        revert();\r\n    }\r\n}\r\n\r\n\r\n",
  "sourcePath": "C:/Programming/Blockchain Programs/My-Bootstrap_Project/contracts/1_Crowdfund.sol",
  "compiler": {
    "name": "solc",
    "version": "0.5.1+commit.c8a2cb62.Emscripten.clang"
  },
  "schemaVersion": "3.3.1",
  "updatedAt": "2021-06-16T09:59:47.822Z",
  "networkType": "ethereum",
  "devdoc": {
    "methods": {}
  },
  "userdoc": {
    "methods": {
      "GetProject(uint256)": {
        "notice": "function contribute(address _projectAddress) public payable returns (bool successful) { \r // Check amount sent is greater than 0\r if (msg.value <= 0) {\r emit  LogFailure(\"Contributions must be greater than 0 wei\");\r revert();\r }\r Project deployedProject = Project(_projectAddress);\r // Check that there is actually a Project contract at that address\r if (deployedProject.fundingHub() == address(0)) {\r emit    LogFailure(\"Project contract not found at address\");\r revert();\r }\r // Check that fund call was successful\r if (deployedProject.fund.value(msg.value)(msg.sender)) {\r emit  LogContributionSent(_projectAddress, msg.sender, msg.value);\r return true;\r } else {\r LogFailure(\"Contribution did not send successfully\");\r return false;\r }\r } \r"
      },
      "createProject(uint256,uint256,string)": {
        "notice": "Create a new Project contract\r [0] -> new Project contract address\r"
      }
    }
  }
}